:020000040800F2
:10000000F005002045010008A50600083506000897
:1000100051010008530100085501000800000000CC
:1000200000000000000000000000000015090008AA
:100030005901000800000000ED070008E50900086C
:100040005F0100085F0100085F0100085F01000810
:100050005F0100085F0100085F0100085F01000800
:100060005F0100085F0100085F0100085F010008F0
:100070005F0100085F0100085F0100085F010008E0
:100080005F0100085F0100085F0100085F010008D0
:10009000F92600085F0100085F0100085F01000801
:1000A0005F0100085F0100085F0100085F010008B0
:1000B0005F0100085F0100085F0100085F010008A0
:1000C0005F0100085F0100085F0100085F01000890
:1000D0005F0100085F0100085F0100085F01000880
:1000E0003D0200085F010008E11A00085F010008F6
:1000F0005F0100085F0100085F0100085F01000860
:100100005F0100085F0100085F0100085F0100084F
:100110005F0100085F0100085F0100085F0100083F
:100120005F0100085F0100085F0100085F0100082F
:10013000DFF80CD000F018F80048004751270008FD
:10014000F00500200648804706480047FEE7FEE726
:10015000FEE7FEE7FEE7FEE7FEE7FEE7FEE7FEE777
:10016000050A000831010008064C074D06E0E0686A
:1001700040F0010394E8070098471034AC42F6D3EE
:10018000FFF7DAFF482800086828000870B58C18C7
:1001900010F8015B15F0070301D110F8013B2A119B
:1001A00006D110F8012B03E010F8016B01F8016B88
:1001B0005B1EF9D12B0705D40023521E0DD401F884
:1001C000013BFAE710F8013BCB1A921C03E013F84D
:1001D000015B01F8015B521EF9D5A142D8D3002082
:1001E00070BD0000F0B5561C7510074E06EB4104BB
:1001F0002B4605E034F8047B20F8017B401C5B1E95
:10020000002BF7D1F0BD000000600040012009493B
:10021000086000200860091D086006491031086068
:100220004FF47F40044908600846008880B20149C5
:1002300008607047405C00403C00002010B54FF45F
:10024000005000F01BF878B10848407940B1012017
:1002500000F0B6FF054800790449C87000204871D5
:100260004FF4005000F004F810BD000034010020ED
:100270000149086070470000140401400146064827
:100280000068084030B1044814380068084008B1DC
:10029000012070470020FCE714040140002123499D
:1002A0008279002A3AD00A46126803689A430B46BC
:1002B0001A600A1D126803689A430B1D1A600279BE
:1002C00011440A6803681A430A60184A083212681F
:1002D00003689A43154B08331A601A1D12680368A5
:1002E0009A43124B0C331A604279102A0ED11A1F0E
:1002F000126803681A430D4B08331A601A1D1268FE
:1003000003681A43094B0C331A600DE00749427920
:1003100011440A6803681A430A6005E0027911442F
:100320000A6803689A430A607047000000040140AD
:1003300010B501290FD1104B03EB8002D2F8002C2D
:1003400048F68F731A4042F040020B4C04EB8003D6
:10035000C3F8002C0FE071B9074B03EB8002D2F811
:10036000002C48F68F731A4042F48042024C04EB92
:100370008003C3F8002C10BD0050004010B50446A7
:10038000044A32F81410044A52F8240000F035F9F7
:1003900010BD0000EC2700080C0100207FB50446CA
:1003A0000D46234951F8241041F00100012100F0CD
:1003B0002FFA28208DF80F001E4830F81400ADF8F1
:1003C0000C001D4951F8240003A900F08BF8012D01
:1003D0002DD11A4A12F81410194A12F8140000F01C
:1003E00035F8184810F814008DF8000002208DF838
:1003F000010000208DF8020001208DF803006846FE
:1004000000F052F9104830F81400019000208DF8E7
:1004100008000C208DF8090001208DF80A0001A8C1
:10042000FFF73CFF084931F81400FFF721FF7FBDBB
:10043000F4270008EC2700080C010020142800080D
:100440000C2800081C2800080428000810B5002209
:100450008B071C0F0F2303FA04F204290EDA204B3A
:100460009B6893431E4CA36023469B688C07240F14
:1004700000FA04F423431A4CA3602FE008290EDA93
:10048000174BDB689343164CE3602346DB688C070D
:10049000240F00FA04F42343114CE3601EE00C29FE
:1004A0000EDA0F4B1B6993430D4C236123461B69E6
:1004B0008C07240F00FA04F42343094C23610DE058
:1004C000074B5B699343064C636123465B698C076A
:1004D000240F00FA04F42343014C636110BD0000B3
:1004E000000001402DE9F0410246002500260020D1
:1004F00000230024002791F803C00CF00F0591F8A9
:1005000003C00CF0100CBCF1000F03D091F802C036
:100510004CEA050591F800C0BCF1000F31D0146819
:1005200000202BE04FF0010C0CFA00F3B1F800C0F2
:100530000CEA03069E4220D183004FF00F0C0CFA08
:1005400003F7BC4305FA03FC4CEA040491F803C02A
:10055000BCF1280F06D14FF0010C0CFA00FCC2F8D8
:1005600014C00AE091F803C0BCF1480F05D14FF068
:10057000010C0CFA00FCC2F810C0401C0828D1D3B2
:100580001460B1F800C0BCF1FF0F34D954680020EA
:100590002EE000F1080C4FF0010808FA0CF3B1F856
:1005A00000C00CEA03069E4221D183004FF00F0CDD
:1005B0000CFA03F7BC4305FA03FC4CEA040491F877
:1005C00003C0BCF1280F05D100F1080C08FA0CF8A3
:1005D000C2F8148091F803C0BCF1480F07D100F1B4
:1005E000080C4FF0010808FA0CF8C2F81080401C03
:1005F0000828CED35460BDE8F081024600209368FD
:100600000B400BB1012000E00020704741617047B2
:10061000016170470549086838B1054A9070010AC0
:10062000D170010C1171010E51717047002102400F
:100630001C00002000BFFEE710B54FF4803000F032
:1006400027F900BF312000F0FFF80028FAD0012080
:1006500000F02CF900BF392000F0F6F80028FAD09D
:10066000022000F0E5F800BF00F00AF90828FBD1ED
:100670000021022000F088F810BD10B50120FFF71E
:100680007DFE08B9032010BD0220FFF777FE08B9F0
:100690000220F8E70320FFF771FE08B90120F2E716
:1006A0000020F0E77047000070B500210022002311
:1006B000C478002C4DD02C4C246804F4E064B4F5CC
:1006C000E06F02D100BF042326E0274C246804F425
:1006D000E064B4F5C06F02D1012203231CE0224C78
:1006E000246804F4E064B4F5A06F02D1022202236E
:1006F00012E01D4C246804F4E064B4F5806F02D16C
:100700000322012308E0184C246804F4E064B4F5E3
:10071000407F01D1042200234478C2F1040504FA89
:1007200005F18478C3F104060F2535412C4021439F
:1007300009010E4C0678A155047804F01F05012428
:10074000AC4005786D11AD0005F1E025C5F800411C
:1007500009E0047804F01F040125A540044C067844
:10076000761144F8265070BD0CED00E000E400E086
:1007700080E100E002490143024A11607047000035
:100780000000FA050CED00E029B1064A12680243A8
:10079000044B1A6004E0034A12688243014B1A605A
:1007A0007047000010ED00E010B5024600200D4B30
:1007B000186820F00300104318600B4B1B6843F0CF
:1007C0000403094C2360012901D130BF02E040BF7E
:1007D00020BF20BF044B1B6823F00403024C23609E
:1007E00010BD00000070004010ED00E070470000F8
:1007F00029B1064AD2690243044BDA6104E0034A94
:10080000D2698243014BDA61704700000010024058
:1008100029B1064A92690243044B9A6104E0034AF3
:1008200092698243014B9A617047000000100240B8
:1008300001460020034A506820F00300084350603E
:1008400070470000001002400146002200234A11B8
:10085000012A02D10948036806E0022A02D10748AA
:10086000036A01E00548436A01F01F02012090403D
:10087000184008B1012070470020FCE7001002403A
:100880000248406800F00C00704700000010024071
:100890000549096821F4A021034A1160114609683D
:1008A00001431160704700000010024030B1074959
:1008B000096841F08071054A116005E00349096843
:1008C00021F08071014A1160704700000010024061
:1008D0000549496821F44001034A516011464968BD
:1008E00001435160704700000010024010B50848F5
:1008F000006880B220F0040005490860FFF79CFE04
:100900000348006880B220F008000149086010BD6B
:10091000405C0040704710B500F002F810BD0000C8
:100920000CB50020019000902C48006840F4803005
:100930002A49086000BF2948006800F40030009090
:100940000198401C0190009820B94FF6FF71019862
:100950008842F0D12148006800F4003010B1012035
:10096000009001E0002000900098012834D11B483D
:1009700040681A4948600846406848600846406830
:1009800040F48060486008464068154908401349B3
:1009900048600846406840F488104860084600688F
:1009A00040F08070086000BF0C48006800F00070E4
:1009B0000028F9D00948406820F003000749486042
:1009C0000846406840F00200486000BF03484068A5
:1009D00000F00C000828F9D10CBD00000010024006
:1009E000FFFFC0F710B500F0B5FB0446207808B94A
:1009F000607820B102222146014800F07AFB10BD48
:100A00003401002010B51148006840F001000F4982
:100A10000860084640680E4908400C49486008468E
:100A200000680C490840094908600846006820F43D
:100A3000802008600846406807490840034948602C
:100A40004FF41F008860FFF766FF10BD00100240E2
:100A50000000FFE8FFFFF6FEFFFF00F770B5054658
:100A60000C460026207800F01F0020B101281DD080
:100A7000022850D130E0E878022802D0032812D1B1
:100A800000E000BF6088012805D100206871284679
:100A900001F06EF806E06088022803D1214628465E
:100AA00000F020F900E000BF00BF39E0A87802287C
:100AB00002D003280DD104E02146284600F012F9A7
:100AC00008E02079012803DD2146284600F00AF9D4
:100AD00000E000BF00BF23E02679E878022802D0BA
:100AE000032815D107E02EB1802E03D021462846D9
:100AF00000F0F8F80DE0608830B92EB1802E03D0F8
:100B00003146284601F09CF8284601F031F800E013
:100B100000BF00BF04E02146284600F0E3F800BF14
:100B200000BF70BD70B504460D46206F294642686F
:100B300020469047002070BD10B50446012000F00B
:100B4000D5FF0520E07010BD70B505460E4606EBDA
:100B5000460105F1100000EBC104002E3AD1A8783F
:100B6000022828D1A168206988420AD9A168206991
:100B7000401A2061208A82B22846E16800F0D4FF42
:100B800041E0A1682069884207D10020206100224D
:100B90001146284600F0C8FF35E0286F806930B163
:100BA000E878032803D1286F8169284688472846BA
:100BB00000F0C6FF27E0A878042824D11348007865
:100BC00008B312480178284601F0B0FB00200F4915
:100BD000087018E0D4E90401401A2061206958B96E
:100BE000286F006A78B1E87803280CD1286F314665
:100BF000026A2846904706E0208A83B2314628469A
:100C0000E26801F001FC002070BD000040000020FF
:100C100070B504460E4606EB460104F1400000EBB9
:100C2000C10556BBA07803281CD1A9682869884251
:100C30000AD9A9682869401A2861288A82B2204600
:100C4000E96800F065FF23E0206FC06930B1E0780B
:100C5000032803D1206FC16920468847204600F051
:100C600087FF15E0A078052812D10A48006848F6E9
:100C70008F610840074908600AE0206F406A38B178
:100C8000E078032804D1206F3146426A204690471D
:100C9000002070BD005C004001460020704770B528
:100CA00004460D46E078032814D1287901280CDC8D
:100CB000206F2946C268204690470646E88840B91A
:100CC0003EB9204600F054FF03E02946204600F0DC
:100CD00009F804E02946204600F004F800BF00BFF0
:100CE000002070BD70B504460D460021204601F07D
:100CF0003DFB70BD38B504460D4600200090E888E5
:100D0000012804D029462046FFF7ECFF13E0E078E5
:100D1000022802D003280CD105E0012269462046B2
:100D200000F032FF06E00122611C204600F02CFF9B
:100D300000E000BF00BF38BDF8B504460E4630786D
:100D400000F01F0000287CD17088001208285BD2B8
:100D5000DFE800F05A0410175A5A50552078A16F56
:100D60000A68694690470546F088402801D1082066
:100D700000904EE02078216FCA6A69469047054688
:100D800047E0B07806282ED2DFE800F0030A1118F9
:100D90001F262078A16F4A6869469047054627E0DC
:100DA0002078A16F8A6869469047054620E0207840
:100DB000A16FCA6869469047054619E02078A16F7F
:100DC0000A6969469047054612E02078A16F4A6992
:100DD0006946904705460BE02078A16F8A6969460D
:100DE0009047054604E031462046FFF77BFFF8BDFB
:100DF00000BF0EE031462046FFF774FFF7E73146AB
:100E00002046FFF76FFFF2E731462046FFF76AFF03
:100E1000EDE700BFBDF8000090B1F08880B1F08828
:100E2000BDF80010884203DDBDF8000001E008E0D5
:100E3000F0880090BDF800202946204600F0A4FE6E
:100E400009E0307800F01F00012804D1206F3146FE
:100E500082682046904700BFC9E770B504460D463A
:100E6000E078022802D0032813D104E02946204666
:100E7000FFF738FF0EE02879012805DC206F2946AE
:100E800002692046904703E029462046FFF72AFFE3
:100E900000E000BF00BF70BD7CB504460E460020D8
:100EA00001900090307800F01F0020B1012819D087
:100EB000022864D132E0E078022802D003280ED163
:100EC00000E000BF607920B1BDF8040040F00200EE
:100ED0000190022201A9204600F056FE00E000BF6A
:100EE00000BF51E0E078022802D0032813D104E0CB
:100EF00031462046FFF7F6FE0EE03079012805DC8A
:100F0000022201A9204600F03FFE03E031462046C0
:100F1000FFF7E8FE00E000BF00BF35E03579E0787C
:100F2000022802D0032827D107E02DB1802D03D05D
:100F300031462046FFF7D6FE1FE005F080008028EE
:100F40000BD105F07F0000EB400104F1100010F818
:100F5000310058B10120009008E005EB450104F193
:100F6000400010F8310008B10120009002226946CB
:100F7000204600F009FE00E000BF00BF04E031465B
:100F80002046FFF7AFFE00BF00BF7CBD70B5134623
:100F90000122B0B103261446551CEAB20E550AE0F0
:100FA00010F8016B1446551CEAB20E550026144683
:100FB000551CEAB20E550478002CF1D11A801C7829
:100FC0000C7070BD70B505460C4660780C281ED2BA
:100FD000DFE800F01D06070D1D1D1D1D1D13141952
:100FE0001BE001220E49284600F0CEFD15E001224B
:100FF0000C49284600F0C8FD0FE00EE060880012A2
:101000000749086009E0A0780649086005E0214624
:101010002846FFF767FE022070BD00BF0020FBE7F7
:10102000B0000020AC00002070B504460D468121C0
:10103000204600F06BFE0121204600F067FE0020F4
:1010400070BD000002462220088001487047000061
:101050009A2700082DE9F04105460C460026002796
:101060006088001221280AD0222811D1E088152892
:1010700001DD152000E0E08806460A4F09E0E0881F
:10108000092801DD092000E0E0880646064F00E05F
:1010900000BF00BF32463946284600F075FD0020EB
:1010A000BDE8F081BC270008AC27000870B50446F5
:1010B0000D4601220249204600F066FD002070BD69
:1010C000A800002070B504460D46A023002281210F
:1010D000204600F067FD022303228121204600F014
:1010E000E1FE022303220121204600F0DBFE002066
:1010F00070BD70B506460C461546F078032805D13C
:101100002B4622468121304601F07EF9002070BD39
:1011100002468878014B186000207047A800002024
:101120002DE9F04104460D4616461F462046FFF7BE
:10113000B3FD26676767A567FFF76CFA002060714B
:1011400001202070FFF762F8616F08688047BDE8F2
:10115000F081000070B500240025FFF78EFA012809
:101160000AD0022802D0032809D102E0A01F44B20D
:1011700006E0A01D44B203E0A81D45B200E000BF98
:1011800000BF02490C704D70084670BD3800002049
:1011900082790A70C2794A70037A427A03EB02229A
:1011A0004A80837AC27A03EB02228A80037B427BE5
:1011B00003EB0222CA800122827070477047000050
:1011C00010B50446052C01D023480470224800784D
:1011D00006283BD2DFE800F0031016243B3C1F48F2
:1011E000007828B9FFF782FB04201B49087002E051
:1011F0000320194908702CE0FFF778FB01201749FC
:10120000087000BF0F20164908701648006880B2A9
:1012100040F010001349086003200F49087018E0DF
:101220000F480078401E0E4908700846007860B9E3
:101230000C48006880B220F010000A4908600420C1
:101240000549087000200549087002E000BF00BF92
:1012500000BF00BF10BD0000A4000020A7000020B8
:10126000A5000020405C004070B504460D46A888EB
:10127000D0B9E888C0B9A87800F07F000D4908709F
:10128000E078032804D129462046FFF72BFD0FE024
:10129000204600F06DFC0748007810B10220E07095
:1012A00006E00120E07003E029462046FFF71AFD22
:1012B00070BD00004000002070B504460D46206F50
:1012C0002946026820469047616F88688047002061
:1012D00070BD000070B504460D46A8782949087015
:1012E00008460078012804DD29462046FFF7FAFC6D
:1012F00046E0E078022802D003283FD114E02148DC
:10130000007868B11F48007860700320E0701D48C5
:1013100001782046FFF7D0FF204600F029FC02E0CC
:10132000204600F025FC2AE01648007868B9022023
:10133000E070144800786070124801782046FFF78A
:10134000F1FB204600F014FC17E060780D490978A5
:1013500088420FD061782046FFF7E4FB0948007807
:101360006070084801782046FFF7A6FF204600F08D
:10137000FFFB02E0204600F0FBFB00E000BF00BFE7
:1013800070BD000078000020704770B504460E461E
:101390000025307800F01F0020B1012814D0022869
:1013A00046D127E0E078022802D0032809D100E0E6
:1013B00000BF7088012803D16071204600F0D8FB7F
:1013C00000E000BF00BF38E0A078022802D0032868
:1013D0000DD104E031462046FFF784FC08E0307967
:1013E000012803DD31462046FFF77CFC00E000BF0A
:1013F00000BF22E0E078022802D0032815D107E0E0
:101400002DB1802D03D031462046FFF76BFC0DE057
:10141000708830B92DB1802D03D02946204600F0C8
:10142000A5FF204600F0A4FB00E000BF00BF04E0E1
:1014300031462046FFF756FC00BF00BF70BD70B5B7
:1014400004460D46E078022802D0032813D104E0B8
:1014500029462046FFF746FC0EE02879012805DCE6
:10146000206F294642692046904703E029462046DE
:10147000FFF738FC00E000BF00BF70BD1CB504469C
:1014800069462046FFF784FE9DF8000000F06000EA
:1014900020B1202807D040280FD109E06946204616
:1014A00000F014F80EE069462046FFF7F8FB09E06B
:1014B0006946204600F0E6F804E00021204600F0EE
:1014C00055FF00BF00BF00201CBD000070B50546E1
:1014D0000C466078034951F8202021462846904761
:1014E000002070BD4400002010B50F48006880B295
:1014F00040F00C000C490860081D006800F48050A2
:1015000020B901210846FFF74FF90BE04EF6FF70B6
:101510000549091D0860081F006880B220F0080016
:10152000091F086010BD0000405C004070470000CB
:1015300070B505460C462246024903A0FFF726FD7A
:10154000004870BDB0010020555342204D6F7573A7
:101550006520436F6E666967000000000246122036
:101560000880014870470000842700087047000089
:1015700030B5134800686422B0FBF2F1481EB0F1A8
:10158000807F00D31BE0481E4FF0E02250615017CF
:101590000F22002807DA13071D0E0A4B00F00F0474
:1015A000241F1D5503E013071C0E074B1C5400BFDE
:1015B00000204FF0E02290610720106100BF30BD95
:1015C000E800002018ED00E000E400E070477047FC
:1015D0007047000070B505460C462246024903A03C
:1015E000FFF7D4FC004870BDB001002055534220E5
:1015F0004D6F75736520496E746572666163650031
:101600000246042008800148704700009627000821
:1016100070B505460C462246024903A0FFF7B6FC0A
:10162000004870BDB0010020474433324D696372F9
:101630006F656C656374726F6E69637300000000A0
:1016400070B505460C462246024903A0FFF79EFCF2
:10165000004870BDB001002047443332205553424A
:10166000204D6F75736520696E204653204D6F6461
:10167000650000000246062008800148704700000F
:101680001C00002002460020704710B504460520CB
:10169000FFF796FD002010BD0146002070470000B6
:1016A0002DE9FC4107460024002500200190009010
:1016B000F7E0BDF8040000F00F05804901EB85005C
:1016C000D0F8000C80B20090BDF8040000F01000CB
:1016D000002878D105EB450107F1100000EBC104AB
:1016E000BDF8000000F080000028E1D00026B046E0
:1016F000724901EB8500D0F8000C48F60F710840E4
:101700006E4A02EB8501C1F8000CBDF8000000F044
:10171000400070B16A48006880B200EBC500801CD0
:10172000684931F81000C0F309006061B4F8068020
:101730000DE06348006880B200EBC500801D614980
:1017400031F81000C0F309006061B4F804806169E9
:10175000E0680844E060D4E90401401A2061A1680F
:101760002069884202D9208986B208E020690028D1
:1017700005D9A1682069884201D8208A86B2002E46
:1017800008DD32464146E06800F0BAFF00212846F5
:10179000FEF7CEFD2069A0B9484A02EB8501D1F8D9
:1017A000001C48F6BF7201EA020080F02001434BA2
:1017B00003EB8502C2F8001C386F2946026A4248D2
:1017C00090476EE0FFE705EB45013F48403000EBF6
:1017D000C104BDF8000000F40040002861D00026DC
:1017E000364901EB8500D0F8000CC0F30E0048F636
:1017F0008F710840314A02EB8501C1F8000CBDF839
:10180000000000F4804088B12D48006880B200EBF1
:10181000C500801C2B4931F81000C0F30906B6B191
:10182000B2B2A188E068FEF7DDFC10E02448006851
:1018300080B200EBC500801D224931F81000C0F3D2
:10184000090626B1B2B2E188E068FEF7CBFC0121BF
:101850002846FEF76DFDE0683044E0606069304482
:1018600060612069801B2061206910B1A068B042CE
:1018700016D9124A02EB8501D1F8001C4BF68F7283
:1018800001EA020080F400510C4B03EB8502C2F820
:10189000001C386F2946426A0B489047002060615F
:1018A00000BF07480C38006880B2019000F4004087
:1018B00000287FF4FEAEBDE8FC810000005000402F
:1018C000505C004000600040340100202DE9FC41E4
:1018D00007460024002500200190009097E0BDF805
:1018E000040000F00F05504901EB8500D0F8000C12
:1018F00080B20090BDF8040000F0100068BB05EB5A
:10190000450107F1100000EBC104BDF8000000F034
:10191000800000287BD0444901EB8500D0F8000C02
:1019200048F60F710840404A02EB8501C1F8000CEF
:101930003E48006880B200EBC500801C3C4931F88D
:101940001000C0F3090060616169E0680844E0606C
:1019500029463846FFF7F8F859E0002605EB45011F
:1019600007F1400000EBC104BDF8000000F40040A6
:1019700000284BD02C4901EB8500D0F8000CC0F3B7
:101980000E0048F68F710840274A02EB8501C1F826
:10199000000C2648006880B200EBC500801D244979
:1019A00031F81000C0F30906A6B1BDF8000000F43C
:1019B000006050B1B2B26188B81DFEF713FC384622
:1019C000FFF75CFD0020BDE8FC81B2B26188E068F1
:1019D000FEF708FC606930446061E0683044E06014
:1019E0002069801B2061206910B1A068B04206D92F
:1019F00029463846FFF70CF90020606106E0208A8E
:101A000083B229463846E26800F0BCFB00BF0748B5
:101A10000C38006880B2019000F4004000287FF488
:101A20005EAF00BFCFE7000000500040505C0040B8
:101A30000060004001460020704710B50446202396
:101A400000221146204600F0ADF8602300228021DC
:101A5000204600F0A7F8402300221146204600F05F
:101A600021FA402300228021204600F01BFA207832
:101A7000626F516888470021204600F057FC012022
:101A8000E070002010BD10B50446206F806A18B1C8
:101A9000206F816A20468847002010BD10B504469B
:101AA000E07820710420E070616FC86880470548C5
:101AB000007810B1FFF718FD02E00220FFF780FB6D
:101AC000002010BDA600002010B50446616F086913
:101AD00080472079E0700020FFF772FB002010BDE6
:101AE00010B54FF48020FEF7C3FB10BD10B50446BF
:101AF000012C04D141020548FEF78AFD04E04FF4B1
:101B000000710248FEF782FD10BD00000010014088
:101B100070B506460C4615462B4622460021304637
:101B200000F030FB002070BD70B506460C4615462F
:101B30002B4622468021304600F066FC002070BD16
:101B400010B504460948006840F4807048F68F716B
:101B50000840064908600520A07000231A4619466F
:101B6000204600F00FFB002010BD0000005C00408C
:101B700010B504460420A07000231A468021204698
:101B800000F042FC002010BD70B506460C4615461C
:101B90000220B0702B4622468021304600F034FCF3
:101BA000002070BDF0B505460C4604F07F01E6113B
:101BB00036B101EB410705F1100606EBC70005E061
:101BC00001EB410705F1400606EBC7001AB90026F4
:101BD000467043802DE0012A2BD101264670838078
:101BE0001E0CC680134F07EB8106D6F8006C46F436
:101BF000807648F68F773E40DFF838C00CEB8107DF
:101C0000C7F8006C868826F001060B4F3F68BFB20C
:101C100007EBC107DFF824C04CF81760C68826F030
:101C20000107054E3668B6B206EBC106361D4CF804
:101C30001670F0BD00500040505C00400060004055
:101C4000F0B5024601F07F00CC1164B300EB400513
:101C500002F1100404EBC5032B4D05EB8004D4F80E
:101C6000004C04F040046CB105EB8004D4F8004C47
:101C700048F68F752C4044F04004234E06EB800557
:101C8000C5F8004C204E06EB8005D5F8005C48F600
:101C9000BF7605EA060484F030051B4F07EB80068B
:101CA000C6F8005C2CE000EB400502F1400404EBB8
:101CB000C503154D05EB8004D4F8004C04F48044B2
:101CC0006CB105EB8004D4F8004C48F68F752C40BD
:101CD00044F480440C4E06EB8005C5F8004C0A4ED7
:101CE00006EB8005D5F8005C4BF68F7605EA060416
:101CF00084F44055044F07EB8006C6F8005C00BF33
:101D000000241C70F0BD00000050004070B5024679
:101D10000B4603F07F00DC11002C5FD000EB400588
:101D200002F1100404EBC5015D4D05EB8004D4F80D
:101D3000004C04F040046CB105EB8004D4F8004C76
:101D400048F68F752C4044F04004554E06EB800554
:101D5000C5F8004C4C7894B3514D05EB8004D4F891
:101D6000004C04F480446CB105EB8004D4F8004CC2
:101D700048F68F752C4044F48044494E06EB8005AC
:101D8000C5F8004C464D05EB8004D4F8004C48F6ED
:101D90008F752C4044F04004414E06EB8005C5F899
:101DA000004C06EB8005D5F8005C4BF68F7605EA13
:101DB00006043B4E06EB8005C5F8004C00BF384ECC
:101DC00006EB8005D5F8005C48F6BF7605EA060408
:101DD000334E06EB8005C5F8004C5FE000EB400594
:101DE00002F1400404EBC5012D4D05EB8004D4F84D
:101DF000004C04F480446CB105EB8004D4F8004C32
:101E000048F68F752C4044F48044254E06EB80053F
:101E1000C5F8004C4C7894B3214D05EB8004D4F800
:101E2000004C04F040046CB105EB8004D4F8004C85
:101E300048F68F752C4044F04004194E06EB80059F
:101E4000C5F8004C164D05EB8004D4F8004C48F65C
:101E50008F752C4044F48044114E06EB8005C5F884
:101E6000004C06EB8005D5F8005C48F6BF7605EA25
:101E700006040B4E06EB8005C5F8004C00BF084E6B
:101E800006EB8005D5F8005C4BF68F7605EA060474
:101E9000034E06EB8005C5F8004C00BF70BD000086
:101EA000005000402DE9F04104460D4605F07F004A
:101EB00032B1012A35D0022A13D0032A42D11FE0C1
:101EC000AD4F07EB8006D6F8006C48F68F173E4002
:101ED00046F40076DFF8A0C20CEB8007C7F8006C70
:101EE00030E0A54F07EB8006D6F8006C48F68F1758
:101EF0003E40DFF884C20CEB8007C7F8006C21E09D
:101F00009D4F07EB8006D6F8006C48F68F173E40D1
:101F100046F4C066DFF860C20CEB8007C7F8006CBF
:101F200010E0954F07EB8006D6F8006C48F68F1747
:101F30003E4046F48066DFF840C20CEB8007C7F8ED
:101F4000006C00BF00BFEE11002E7DD000EB4007FB
:101F500004F1100606EBC701874F07EB8006D6F8A1
:101F6000006C06F0400676B107EB8006D6F8006CF0
:101F700048F68F773E4046F04006DFF8FCC10CEB98
:101F80008007C7F8006C4E787EBB4E8826F00106AD
:101F90007A4F3F68BFB207EBC007DFF8E4C14CF8E7
:101FA0001760DFF8D4C10CEB8007D7F8007C48F647
:101FB000BF7C07EA0C0686F02007DFF8BC8108EB3F
:101FC000800CCCF8007C00280ED1474607EB800639
:101FD000D6F8006C48F68F773E4046F04006C4467F
:101FE0000CEB8007C7F8006CBDE0FFE7624F07EB22
:101FF0008006D6F8006C06F4804676B107EB8006C2
:10200000D6F8006C48F68F773E4046F48046DFF8FD
:1020100068C10CEB8007C7F8006CDFF85CC10CEB03
:102020008007D7F8007C4BF68F7C07EA0C06DFF8B8
:1020300048C10CEB8007C7F8006C0CEB8007D7F8A1
:10204000007C48F6BF7C00E00AE007EA0C0686F058
:102050003007DFF8248108EB800CCCF8007C82E0AC
:1020600000EB400704F1400606EBC701424F07EBC7
:102070008006D6F8006C06F4804676B107EB800641
:10208000D6F8006C48F68F773E4046F48046DFF87D
:10209000E8C00CEB8007C7F8006C4E78FEB94E889C
:1020A00026F00107354E3668B6B206EBC006361D7F
:1020B000DFF8CCC04CF81670DFF8BCC00CEB800722
:1020C000D7F8007C4BF68F7C07EA0C0686F40057A5
:1020D000DFF8A48008EB800CCCF8007C43E0264FAE
:1020E00007EB8006D6F8006C06F0400676B107EBE9
:1020F0008006D6F8006C48F68F773E4046F04006E2
:10210000DFF874C00CEB8007C7F8006C1A4F07EBC0
:102110008006D6F8006C48F68F773E4046F04006C1
:10212000DFF854C00CEB8007C7F8006C0CEB80079D
:10213000D7F8007C4BF68F7C07EA0C06DFF838C036
:102140000CEB8007C7F8006C0CEB8007D7F8007C1D
:1021500048F6BF7C07EA0C06DFF81CC00CEB8007D2
:10216000C7F8006C00BF8B6000260E70CE600E6159
:102170004E61BDE8F081000000500040505C00401E
:10218000006000402DE9F04104460D4605F07F0156
:1021900001EB410704F1400606EBC700C260036192
:1021A0004678BEBB5E4F3F68BFB207EBC107BF1D9D
:1021B000DFF870C10CEB470687683E2F15D9D0F8C1
:1021C00008C0CCF34F1790F808C00CF01F0CBCF1FE
:1021D000000F03D1A7F1010C1FFA8CF74FF4004C4C
:1021E0004CEA872CC6F800C013E0D0F808C0CCF346
:1021F0004F0790F808C00CF0010CBCF1000F03D0A1
:1022000007F1010C1FFA8CF74FEA872CC6F800C0C3
:1022100000BF71E0FFE7424F3F68BFB207EBC10765
:10222000BF1CDFF800C10CEB470687683E2F15D9AD
:10223000D0F808C0CCF34F1790F808C00CF01F0C72
:10224000BCF1000F03D1A7F1010C1FFA8CF74FF47A
:10225000004C4CEA872CC6F800C015E0D0F808C046
:10226000CCF34F1790F808C00CF01F0CBCF1000F16
:1022700003D1A7F1010C1FFA8CF74FF4004C4CEA84
:10228000872CC6F800C000BF254F3F68BFB207EBE0
:10229000C107BF1DDFF88CC00CEB470687683E2FD7
:1022A00015D9D0F808C0CCF34F1790F808C00CF03F
:1022B0001F0CBCF1000F03D1A7F1010C1FFA8CF722
:1022C0004FF4004C4CEA872CC6F800C013E0D0F85D
:1022D00008C0CCF34F0790F808C00CF0010CBCF11B
:1022E000000F03D007F1010C1FFA8CF74FEA872C7F
:1022F000C6F800C000BF00BFDFF82CC00CEB8107A0
:10230000D7F8007C4BF68F7C07EA0C0686F4405722
:10231000DFF8148008EB810CCCF8007CBDE8F0817C
:10232000505C0040006000400050004030B5034663
:1023300000200FE00B4C04EB8002D2F8002C48F692
:102340008F7422400243074D05EB8004C4F8002C33
:10235000421CD0B20228EDDB41F08002024C226028
:1023600030BD0000005000404C5C0040F0B502461B
:1023700001F07F00CC11B4B100EB400502F1100474
:1023800004EBC5031F4E06EB8005D5F8005C48F64C
:10239000BF7605EA060484F010051A4F07EB8006A5
:1023A000C6F8005C16E000EB400502F1400404EBC7
:1023B000C503144E06EB8005D5F8005C4BF68F760E
:1023C00005EA060484F480550E4F07EB8006C6F834
:1023D000005C00BF90B90B4E06EB8005D5F8005CA1
:1023E0004BF6BF7605EA060484F4805585F01005A7
:1023F000044F07EB8006C6F8005C00BF01241C7088
:10240000F0BD0000005000402DE9F84306460F469D
:10241000904699460020009007F07F0505EB4501A6
:1024200006F1100000EBC104C4F80C80C4F8109051
:1024300000206061A1682069884202D9A0680090EC
:1024400001E020690090607880B9009B9AB26188B1
:10245000E06800F055F924480099006880B200EB6C
:10246000C500801C214A42F810102BE01E4800993C
:10247000006880B200EBC500801C1C4A42F81010B6
:1024800019480099006880B200EBC500801D42F831
:102490001010174901EB8500D0F8000C00F0400047
:1024A00030B1009B9AB2E188E06800F029F905E0BC
:1024B000009B9AB2A188E06800F022F9002128462A
:1024C000FDF736FF0A4A02EB8501D1F8001C48F6F9
:1024D000BF7201EA020080F03001054B03EB850278
:1024E000C2F8001CBDE8F883505C0040006000406A
:1024F0000050004010B50020FEF7EAF90121C805A0
:10250000FEF776F910BD00000EB500210120FDF7A1
:1025100045FF00210220FDF741FF00210320FDF7C8
:102520003DFF01210020FDF739FF01211020FEF7BA
:102530006FF94FF40070ADF8080010208DF80B0013
:1025400003208DF80A0002A90D48FDF7CBFF0121F9
:102550000807FEF74DF94FF48020FDF789FE4FF490
:102560008020009008208DF8050000208DF80400E0
:1025700001208DF806006846FDF790FE0EBD0000B4
:102580000010014008B54FF4C060FEF7F3F81420C6
:102590008DF8000001208DF8010000208DF8020068
:1025A00001208DF803006846FEF77EF82A208DF89A
:1025B000000000208DF801008DF8020001208DF848
:1025C00003006846FEF770F808BD00001CB5002047
:1025D000019000904448006880B20190BDF804006A
:1025E00000F4004041490968084020B140480068B3
:1025F000416840488847BDF8040000F480603B49CA
:102600000968084040B14FF6FF3037490860384844
:102610000068016937488847BDF8040000F480402D
:1026200032490968084040B14BF6FF702E490860F6
:102630002F48006881682F488847BDF8040000F4DF
:1026400000502A490968084040B14DF6FF702649FC
:10265000086027480068C16826488847BDF804001C
:1026600000F4805021490968084040B14EF6FF70DF
:102670001D4908601E480068016A1E488847BDF869
:10268000040000F4006019490968084040B1184886
:102690000068C169174888474FF2FF701249086007
:1026A000BDF8040000F4007010490968084040B10A
:1026B0004FF6FF500C4908600D48006841690D480D
:1026C0008847BDF8040000F4807008490968084094
:1026D00040B14FF6FF600449086005480068816911
:1026E000044888471CBD0000445C00403C000020BA
:1026F000A00000203401002010B5FFF767FF10BDD7
:10270000F0B513465F1C7E10084F07EB41023446BC
:1027100009E00578401C077845EA072722F8027B84
:10272000921C401C641E002CF3D1F0BD00600040E0
:1027300002E008C8121F08C1002AFAD1704770478A
:10274000002001E001C1121F002AFBD170470000E8
:10275000FFF7DAFEFFF7CEFEFFF714FF054B064A40
:1027600006490748FEF7DCFC0548FEF7E5F900BF1F
:10277000FEE7000024000020B4000020000000203C
:10278000340100201201000200000040E928890203
:1027900000010102030104030904090222000101EE
:1027A00000A0320904000001030102000921110107
:1027B00000012215000705810302000A0501090234
:1027C000A101093009311581257F7508950281061F
:1027D000C000000001000400010002001000000021
:1027E0001000000040000000400000000020002019
:1027F0000100004010000000100000000400000074
:10280000080000000020002001000040020002003B
:10281000000001000D000D0000000E00280028003F
:102820000600280000400000000002000400000034
:102830000400000004000000040000000002040086
:102840000004080025002600682800080000002079
:10285000340100008C010008242900083401002004
:10286000BC04000040270008135D15140801161B66
:102870000811041A41041A75041A31141AD5046394
:1028800006031A710C1ACD041A6D041AD1041ACF5A
:1028900004C113990E14085D0A1408BD114C088B6D
:1028A00013081369121408390D1B0889101BF50C45
:1028B0005019101A5B28133F145B082D401AA16CA5
:1028C00013CD181408351A1B08990C1A3B081A87DF
:1028D000041A8B0C1A9D081AC904227C132004D2F6
:1028E0000113C5101B0829041A550413C50F1B0832
:1028F000AD081A117401141A451C5184A24A04101F
:102900000901020304060708093C100140045A1893
:102910000469101A08041A0C041A380412444910E5
:042920009904000016
:0400000508000131BD
:00000001FF
