:020000040800F2
:10000000A00B002045010008AD040008A904000869
:1000100051010008530100085501000800000000CC
:100020000000000000000000000000004D07000874
:100030005901000800000000910500081D08000893
:100040005F0100085F0100085F0100085F01000810
:100050005F0100085F0100085F0100085F01000800
:100060005F0100085F0100085F0100085F010008F0
:100070005F0100085F0100085F0100085F010008E0
:100080005F0100085F0100085F0100085F010008D0
:10009000152800085F0100085F0100085F010008E3
:1000A0005F0100085F0100085F0100085F010008B0
:1000B0005F0100085F0100085F0100085F010008A0
:1000C0005F0100085F0100085F0100085F01000890
:1000D0005F01000879080008A90800085F0100080E
:1000E0005F0100085F0100085F0100085F01000870
:1000F0005F0100085F0100085F0100085F01000860
:100100005F0100085F0100085F0100085F0100084F
:100110005F0100085F0100085F0100085F0100083F
:100120005F0100085F0100085F0100085F0100082F
:10013000DFF80CD000F018F800480047D12A00087A
:10014000A00B00200648804706480047FEE7FEE770
:10015000FEE7FEE7FEE7FEE7FEE7FEE7FEE7FEE777
:100160002108000831010008064C074D06E0E06850
:1001700040F0010394E8070098471034AC42F6D3EE
:10018000FFF7DAFFD42B0008F42B000870B58C18A9
:1001900010F8015B15F0070301D110F8013B2A119B
:1001A00006D110F8012B03E010F8016B01F8016B88
:1001B0005B1EF9D12B0705D40023521E0DD401F884
:1001C000013BFAE710F8013BCB1A921C03E013F84D
:1001D000015B01F8015B521EF9D5A142D8D3002082
:1001E00070BD0000F0B5561C7510074E06EB4104BB
:1001F0002B4605E034F8047B20F8017B401C5B1E95
:10020000002BF7D1F0BD000000600040012009493B
:10021000086000200860091D086006491031086068
:100220004FF47F40044908600846008880B20149C5
:1002300008607047405C00405400002010B5012960
:100240000FD1104B03EB8002D2F8002C48F68F73CD
:100250001A4042F040020B4C04EB8003C3F8002C20
:100260000FE071B9074B03EB8002D2F8002C48F67F
:100270008F731A4042F48042024C04EB8003C3F8AF
:10028000002C10BD005000407CB504460D462E49A0
:1002900051F824102D4A52F82420114341F0010056
:1002A000012100F087F924B90121880300F082F9C7
:1002B00005E0012C03D10121480400F06BF924482A
:1002C00030F81400ADF8040018208DF80700032062
:1002D0008DF806001F4951F8240001A900F044F8E8
:1002E0001D4830F81400ADF8040004208DF8070014
:1002F0001A4951F8240001A900F036F8184951F8BC
:100300002400294600F04AFB154951F82400012138
:1003100000F0EBFA124951F82400012240F2255175
:1003200000F01BFB0F4810F814008DF800000020AF
:100330008DF8010001208DF802008DF80300684659
:1003400000F0B6F87CBD0000B82B0008C02B0008F8
:10035000C82B000860010020CC2B00086801002099
:1003600058010020D02B00082DE9F041024600255D
:100370000026002000230024002791F803C00CF081
:100380000F0591F803C00CF0100CBCF1000F03D066
:1003900091F802C04CEA050591F800C0BCF1000FCD
:1003A00031D0146800202BE04FF0010C0CFA00F360
:1003B000B1F800C00CEA03069E4220D183004FF042
:1003C0000F0C0CFA03F7BC4305FA03FC4CEA0404D7
:1003D00091F803C0BCF1280F06D14FF0010C0CFAC4
:1003E00000FCC2F814C00AE091F803C0BCF1480F49
:1003F00005D14FF0010C0CFA00FCC2F810C0401CF3
:100400000828D1D31460B1F800C0BCF1FF0F34D973
:10041000546800202EE000F1080C4FF0010808FAA3
:100420000CF3B1F800C00CEA03069E4221D1830010
:100430004FF00F0C0CFA03F7BC4305FA03FC4CEA2F
:10044000040491F803C0BCF1280F05D100F1080C99
:1004500008FA0CF8C2F8148091F803C0BCF1480FF8
:1004600007D100F1080C4FF0010808FA0CF8C2F8A7
:100470001080401C0828CED35460BDE8F081416153
:1004800070470161704700000549086838B1054AA6
:100490009070010AD170010C1171010E51717047F9
:1004A000002102401C00002000BFFEE77047000052
:1004B00070B5002100220023C478002C4DD02C4CB4
:1004C000246804F4E064B4F5E06F02D100BF0423B3
:1004D00026E0274C246804F4E064B4F5C06F02D130
:1004E000012203231CE0224C246804F4E064B4F5E8
:1004F000A06F02D10222022312E01D4C246804F4F2
:10050000E064B4F5806F02D10322012308E0184CA7
:10051000246804F4E064B4F5407F01D10422002390
:100520004478C2F1040504FA05F18478C3F10406A5
:100530000F2535412C40214309010E4C0678A15569
:10054000047804F01F050124AC4005786D11AD005E
:1005500005F1E025C5F8004109E0047804F01F0426
:100560000125A540044C0678761144F8265070BD4C
:100570000CED00E000E400E080E100E0024901430E
:10058000024A1160704700000000FA050CED00E01F
:100590007047000029B1064AD2690243044BDA6170
:1005A00004E0034AD2698243014BDA6170470000DC
:1005B0000010024029B1064A92690243044B9A6135
:1005C00004E0034A92698243014B9A61704700003C
:1005D00000100240F0B50021002200240025002375
:1005E000464E766806F00C0121B1042905D0082991
:1005F0002AD105E0424E066029E0414E066026E021
:100600003E4E766806F470123C4E766806F0006442
:10061000E60EC6EB061404EB9246B21C374E766823
:1006200006F480351DB9374E564306600BE0334E55
:10063000766806F400361EB1324E5643066002E07C
:100640002F4E5643066002E02D4E066000BF00BFED
:100650002A4E766806F0F00109092B4E735C066895
:10066000DE404660254E766806F4E061090A274EB2
:10067000735C4668DE408660204E766806F4605102
:10068000C90A224E735C4668DE40C6601B4E76681F
:1006900006F08056B10E194E7668C6F381363144A5
:1006A000082929D2DFE801F004080C12161A2024C8
:1006B000C668760806611FE0C668B60806611BE0DA
:1006C0000627C668B6FBF7F6066115E0C668F608A9
:1006D000066111E0C668760806610DE00C27C66861
:1006E000B6FBF7F6066107E0C668F608066103E0A8
:1006F000C6683609066100BF00BFF0BD00100240A9
:1007000000127A0000093D001D0100202D0100208B
:100710000549496821F44001034A5160114649687E
:100720000143516070470000001002400648006815
:1007300080B220F00400044908600846006880B2D6
:1007400020F0080008607047405C0040704710B51A
:1007500000F002F810BD00000CB5002001900090E0
:100760002C48006840F480302A49086000BF2948BE
:10077000006800F4003000900198401C019000983F
:1007800020B94FF6FF7101988842F0D121480068E6
:1007900000F4003010B10120009001E00020009032
:1007A0000098012834D11B4840681A49486008461F
:1007B000406848600846406840F4806048600846E9
:1007C000406815490840134948600846406840F4AD
:1007D000881048600846006840F08070086000BFDC
:1007E0000C48006800F000700028F9D00948406803
:1007F00020F00300074948600846406840F00200C6
:10080000486000BF0348406800F00C000828F9D198
:100810000CBD000000100240FFFFC0F77047000051
:1008200010B51148006840F001000F490860084603
:1008300040680E4908400C494860084600680C4969
:100840000840094908600846006820F480200860D4
:100850000846406807490840034948604FF41F00B4
:100860008860FFF774FF10BD001002400000FFE831
:10087000FFFFF6FEFFFF00F710B540F225510948D3
:1008800000F046F820B100221146104602F0BCF8F4
:100890000821044800F034F810B1024800F01CF8B8
:1008A00010BD00000038014010B540F22551094844
:1008B00000F02EF820B100221146012002F0A4F829
:1008C0000821044800F01CF810B1024800F004F8B8
:1008D00010BD00000044004001468888C0F30800B5
:1008E0007047C1F308028280704721B1828942F4C7
:1008F0000052828103E0828922F400528281704793
:1009000002461088084008B1012070470020FCE72B
:1009100030B502460B46002400210025C3F34215E2
:1009200003F01F010120884081B2012D02D190897E
:10093000014006E0022D02D1108A014001E0908AB8
:1009400001401C120120A04084B21088044011B163
:100950000CB1012030BD0020FCE7F0B503460024B7
:10096000002500201846C1F3421501F01F04012D97
:1009700001D10C3004E0022D01D1103000E0143020
:100980002AB106680127A7403E43066004E00668D6
:100990000127A740BE430660F0BD00002DE9F041ED
:1009A00086B005460E460027B8460024A88920F4E4
:1009B0000050A8812C8A24F44054F08804432C82EF
:1009C000AC8941F20C608443B08831890843718955
:1009D00008430443AC81AC8A24F44074B0890443D6
:1009E000AC8201A8FFF7F6FD0C48854202D1DDF884
:1009F000108001E0DDF80C803068B8FBF0F730685B
:100A0000B8FBF0F100FB11843068B4EB500F00D359
:100A10007F1C2F8106B0BDE8F08100000038014046
:100A200070B5054626480078012846D0254800685C
:100A300025490968884200D170BD224800682249D2
:100A40000968884206D91F480068C0F580601F49C0
:100A5000086006E01C4800681A490968401A1B49EA
:100A600008601A480068402801D9402407E0174868
:100A7000008884B2402C02D1012015490860154835
:100A800010490968421823468121284601F080FD5B
:100A90000C48006820440B4908600C480068001BA3
:100AA0000A49086001200649087006480068B0F548
:100AB000806F02D100200349086000BFBCE700003E
:100AC000C0000020D8000020D4000020DC0000205E
:100AD000D00000209B03002070B505460C46E0883E
:100AE000D8B1207800F0800058B1E28860780F49D2
:100AF0008B680F499847E2880D49284601F008F9AC
:100B000011E060780B490860E0880B490860E288D2
:100B10000749284601F0E2F805E060780349002221
:100B20008B6811469847002070BD00002C00002003
:100B3000C8000020E0000020E400002070B5054659
:100B40000E461F480078012837D11E48006888B932
:100B50001D480068012809D100201B4908600023B6
:100B60001A468121284601F013FD26E00020144991
:100B7000087022E013480068402801D9402409E0A9
:100B80001048008884B20F480068402802D1012034
:100B90000D4908600D480E49096842182346812115
:100BA000284601F0F5FC0A4800682044084908601E
:100BB00004480068001B03490860002070BD000065
:100BC000C0000020DC000020D00000209B0300209B
:100BD000D800002070B504460D4605EB450104F130
:100BE000700000EBC100808A86B207483246074990
:100BF0000369012098474023044A0321204601F05D
:100C000085FB002070BD00002C0000205B0300204D
:100C100070B504460D468121204601F03BF90321C1
:100C2000204601F037F98221204601F033F90249CC
:100C300048688047002070BD2C00002010B5044695
:100C40000A480068FF280ED0094909888AB2074976
:100C5000087808498B6808499847FF2003490860CD
:100C6000002003490860002010BD0000E0000020C3
:100C7000E40000202C000020C80000200246432091
:100C800008800148704700001A2B00082DE9F04148
:100C900005460C463A260B4F60882121B1EB202FE8
:100CA00008D1E0883A2801DD3A2000E0E0880646D5
:100CB000044F093732463946284601F029F800200A
:100CC000BDE8F081232B000870B504460D460122D3
:100CD0000249204601F01CF8002070BDC40000202D
:100CE00070B504460D46C02300228121204601F044
:100CF0001DF84FF4807300228221204601F016F87F
:100D00004FF4887300220321204601F00FF840239E
:100D100002228121204601F089F940230222032189
:100D2000204601F083F9082303228221204601F0A6
:100D30007DF906480168002088474023044A0321C2
:100D4000204601F0E3FA002070BD00002C000020D6
:100D50005B03002010B50446074801780078401C6A
:100D6000054A1070042905D100201146087020465C
:100D7000FFF756FE002010BD1C01002070B505468F
:100D80000C46A078012803DAA0780449086003E043
:100D90002146284600F053F9002070BDC400002011
:100DA00070B505460C460026207800F01F0020B1E3
:100DB00001281DD0022850D130E0E878022802D066
:100DC000032812D100E000BF6088012805D100206F
:100DD0006871284600F090FF06E06088022803D181
:100DE0002146284600F02BF900E000BF00BF39E0A3
:100DF000A878022802D003280DD104E02146284615
:100E000000F01DF908E02079012803DD214628467D
:100E100000F015F900E000BF00BF23E02679E87874
:100E2000022802D0032815D107E02EB1802E03D06E
:100E30002146284600F003F90DE0608830B92EB154
:100E4000802E03D03146284600F0BEFF284600F031
:100E500053FF00E000BF00BF04E02146284600F039
:100E6000EEF800BF00BF70BD70B504460D46D4F863
:100E7000D0002946426820469047002070BD10B53A
:100E80000446012000F0E8FE0520E07010BD0000DF
:100E900070B505460E4606EB460105F1100000EB65
:100EA000C104002E3CD1A87802282AD1A16820696B
:100EB00088420AD9A1682069401A2061208A82B23A
:100EC0002846E16800F0E6FE45E0A1682069884216
:100ED00007D10020206100221146284600F0DAFEEA
:100EE00039E0D5F8D000806938B1E878032804D11A
:100EF000D5F8D000816928468847284600F0D6FEFC
:100F000029E0A878042826D11448007818B313489B
:100F10000178284601F0CEFA0020104908701AE046
:100F2000D4E90401401A2061206968B9D5F8D000DD
:100F3000006A80B1E87803280DD1D5F8D000314699
:100F4000026A2846904706E0208A83B23146284646
:100F5000E26801F01DFB002070BD00005800002079
:100F600070B504460E4606EB460104F1700000EB36
:100F7000C10566BBA07803281ED1A96828698842EC
:100F80000AD9A9682869401A2861288A82B22046AD
:100F9000E96800F073FE27E0D4F8D000C06938B1EA
:100FA000E078032804D1D4F8D000C16920468847EE
:100FB000204600F0A1FE17E0A078052814D10B48C8
:100FC000006848F68F610840084908600CE0D4F8D2
:100FD000D000406A40B1E078032805D1D4F8D000B1
:100FE0003146426A20469047002070BD005C0040B8
:100FF00001460020704770B504460D46E07803288E
:1010000015D1287901280DDCD4F8D0002946C26812
:10101000204690470646E88840B93EB9204600F091
:101020006BFE03E02946204600F009F804E029465B
:10103000204600F004F800BF00BF002070BD70B56E
:1010400004460D460021204601F054FA70BD38B523
:1010500004460D4600200090E888012804D0294667
:101060002046FFF7ECFF13E0E078022802D00328C7
:101070000CD105E001226946204600F049FE06E059
:101080000122611C204600F043FE00E000BF00BFCB
:1010900038BDF8B504460E46307800F01F00002831
:1010A0007AD170880012082863D2DFE800F0620469
:1010B00011196262585D2078D4F8D8100A68694620
:1010C00090470546F088402801D10820009055E05F
:1010D0002078D4F8D010CA6A6946904705464DE09A
:1010E000B078062834D2DFE800F0030B131B232B63
:1010F0002078D4F8D8104A686946904705462CE015
:101100002078D4F8D8108A6869469047054624E0CC
:101110002078D4F8D810CA686946904705461CE084
:101120002078D4F8D8100A6969469047054614E03B
:101130002078D4F8D8104A696946904705460CE0F3
:101140002078D4F8D8108A6969469047054604E0AB
:1011500031462046FFF773FFF8BD00BF0EE0314671
:101160002046FFF76CFFF7E731462046FFF767FFA1
:10117000F2E731462046FFF762FFEDE700BFBDF81A
:10118000000090B1F08880B1F088BDF8001088426E
:1011900003DDBDF8000001E008E0F0880090BDF834
:1011A00000202946204600F0B3FD0AE0307800F028
:1011B0001F00012805D1D4F8D000314682682046AE
:1011C000904700BFC8E770B504460D46E078022896
:1011D00002D0032814D104E029462046FFF72FFF50
:1011E0000FE02879012806DCD4F8D00029460269EE
:1011F0002046904703E029462046FFF720FF00E005
:1012000000BF00BF70BD7CB504460E4600200190B3
:101210000090307800F01F0020B1012819D002287A
:1012200064D132E0E078022802D003280ED100E039
:1012300000BF607920B1BDF8040040F002000190C9
:10124000022201A9204600F063FD00E000BF00BFBC
:1012500051E0E078022802D0032813D104E031469F
:101260002046FFF7ECFE0EE03079012805DC022273
:1012700001A9204600F04CFD03E031462046FFF76F
:10128000DEFE00E000BF00BF35E03579E0780228DF
:1012900002D0032827D107E02DB1802D03D031469D
:1012A0002046FFF7CCFE1FE005F0800080280BD120
:1012B00005F07F0000EB400104F1100010F8310050
:1012C00058B10120009008E005EB450104F17000E1
:1012D00010F8310008B10120009002226946204632
:1012E00000F016FD00E000BF00BF04E031462046DC
:1012F000FFF7A5FE00BF00BF7CBD70B513460122FD
:10130000B0B103261446551CEAB20E550AE010F897
:10131000016B1446551CEAB20E5500261446551CA6
:10132000EAB20E550478002CF1D11A801C780C70AA
:1013300070BD2DE9F04104460D4616461F46204675
:10134000FFF756FEC4F8D060C4F8D470C4F8D85083
:10135000FFF79AF80020607101202070FEF756FF19
:10136000D4F8D41008688047BDE8F08182790A700B
:10137000C2794A70037A427A03EB02224A80837A66
:10138000C27A03EB02228A80037B427B03EB0222B8
:10139000CA800122827070477047000010B5044671
:1013A000052C01D0234804702248007806283BD23F
:1013B000DFE800F0031016243B3C1F48007828B9F2
:1013C000FFF7B4F904201B49087002E00320194913
:1013D00008702CE0FFF7AAF901201749087000BF38
:1013E0000F20164908701648006880B240F01000BF
:1013F0001349086003200F49087018E00F4800786F
:10140000401E0E4908700846007860B90C48006814
:1014100080B220F010000A490860042005490870D5
:1014200000200549087002E000BF00BF00BF00BFF8
:1014300010BD0000BC000020BF000020BD00002047
:10144000405C004070B504460D46A888D0B9E888D5
:10145000C0B9A87800F07F000D490870E078032833
:1014600004D129462046FFF7EAFD0FE0204600F0B0
:1014700043FC0748007810B10220E07006E001202C
:10148000E07003E029462046FFF7D9FD70BD00005B
:101490005800002070B504460D46D4F8D000294607
:1014A000026820469047D4F8D4108868804700200E
:1014B00070BD000070B504460D46A8782949087033
:1014C00008460078012804DD29462046FFF7B7FDCD
:1014D00046E0E078022802D003283FD114E02148FA
:1014E000007868B11F48007860700320E0701D48E4
:1014F00001782046FFF7CEFF204600F0FDFB02E01A
:10150000204600F0F9FB2AE01648007868B902206E
:10151000E070144800786070124801782046FFF7A8
:10152000A3FC204600F0E8FB17E060780D4909783D
:1015300088420FD061782046FFF796FC0948007872
:101540006070084801782046FFF7A4FF204600F0AD
:10155000D3FB02E0204600F0CFFB00E000BF00BF5D
:1015600070BD000090000020704770B504460E4624
:101570000025307800F01F0020B1012814D0022887
:1015800046D127E0E078022802D0032809D100E004
:1015900000BF7088012803D16071204600F0ACFBC9
:1015A00000E000BF00BF38E0A078022802D0032886
:1015B0000DD104E031462046FFF741FD08E03079C7
:1015C000012803DD31462046FFF739FD00E000BF6A
:1015D00000BF22E0E078022802D0032815D107E0FE
:1015E0002DB1802D03D031462046FFF728FD0DE0B8
:1015F000708830B92DB1802D03D02946204600F0E7
:1016000079FF204600F078FB00E000BF00BF04E057
:1016100031462046FFF713FD00BF00BF70BD70B517
:1016200004460D46E078022802D0032814D104E0D5
:1016300029462046FFF703FD0FE02879012806DC44
:10164000D4F8D000294642692046904703E0294655
:101650002046FFF7F4FC00E000BF00BF70BD1CB5E2
:10166000044669462046FFF781FE9DF8000000F021
:10167000600020B1202807D040280FD109E069463A
:10168000204600F013F80EE069462046FFF7B3FC51
:1016900009E06946204600F0A7F804E00021204652
:1016A00000F028FF00BF00BF00201CBD70B505463C
:1016B0000C466078034951F820202146284690477F
:1016C000002070BD5C0000200348006880B240F03C
:1016D0000C00014908607047405C00407047000002
:1016E00070B505460C462246024903A0FFF705FEE9
:1016F000004870BD5C0200205669727475616C20F0
:10170000436F6D506F727420436F6E66696700009F
:10171000024612200880014870470000042B000890
:1017200070477047704770477047000070B50546B6
:101730000C462246024903A0FFF7DFFD004870BDBA
:101740005C0200205669727475616C20436F6D50A5
:101750006F727420496E7465726661636500000083
:10176000024604200880014870470000162B00083C
:1017700070B505460C462246024903A0FFF7BDFDA1
:10178000004870BD5C020020474433324D696372EB
:101790006F656C656374726F6E696373000000003F
:1017A00070B505460C462246024903A0FFF7A5FD89
:1017B000004870BD5C0200204744333220566972F5
:1017C0007475616C20436F6D506F727420696E2068
:1017D0004653204D6F64650002460620088001488C
:1017E000704700001C00002002460020704710B522
:1017F00004460520FFF7D2FD002010BD0146002061
:10180000704700002DE9FC41074600240025002018
:1018100001900090F9E0BDF8040000F00F05814947
:1018200001EB8500D0F8000C80B20090BDF80400F8
:1018300000F01000002879D105EB450107F11000F8
:1018400000EBC104BDF8000000F080000028E1D0EA
:101850000026B046734901EB8500D0F8000C48F62D
:101860000F7108406F4A02EB8501C1F8000CBDF80A
:10187000000000F0400070B16B48006880B200EBDF
:10188000C500801C694931F81000C0F3090060618F
:10189000B4F806800DE06448006880B200EBC50033
:1018A000801D624931F81000C0F309006061B4F88E
:1018B00004806169E0680844E060D4E90401401AEA
:1018C0002061A1682069884202D9208986B208E097
:1018D0002069002805D9A1682069884201D8208A9A
:1018E00086B2002E08DD32464146E06800F096FFE1
:1018F00000212846FEF7A2FC2069A8B9494A02EB5C
:101900008501D1F8001C48F6BF7201EA020080F0A0
:101910002001444B03EB8502C2F8001CD7F8D0002D
:101920002946026A424890476FE0FFE705EB450110
:101930003F48703000EBC104BDF8000000F40040E7
:10194000002862D00026374901EB8500D0F8000C52
:10195000C0F30E0048F68F710840324A02EB850151
:10196000C1F8000CBDF8000000F4804088B12E489A
:10197000006880B200EBC500801C2C4931F81000D3
:10198000C0F30906B6B1B2B2A188E068FEF72AFC3E
:1019900010E02548006880B200EBC500801D234997
:1019A00031F81000C0F3090626B1B2B2E188E06850
:1019B000FEF718FC01212846FEF740FCE0683044A1
:1019C000E0606069304460612069801B20612069AB
:1019D00010B1A068B04217D9124A02EB8501D1F8C4
:1019E000001C4BF68F7201EA020080F400510D4B8F
:1019F00003EB8502C2F8001CD7F8D0002946426AE2
:101A00000B4890470020606100BF07480C38006811
:101A100080B2019000F4004000287FF4FCAEBDE8E5
:101A2000FC81000000500040505C0040006000401D
:101A3000700100202DE9FC4107460024002500200C
:101A40000190009097E0BDF8040000F00F055049A8
:101A500001EB8500D0F8000C80B20090BDF80400C6
:101A600000F0100068BB05EB450107F1100000EB2A
:101A7000C104BDF8000000F0800000287BD044497C
:101A800001EB8500D0F8000C48F60F710840404A81
:101A900002EB8501C1F8000C3E48006880B200EB03
:101AA000C500801C3C4931F81000C0F3090060619A
:101AB0006169E0680844E06029463846FFF7E8F9C4
:101AC00059E0002605EB450107F1700000EBC10469
:101AD000BDF8000000F4004000284BD02C4901EB79
:101AE0008500D0F8000CC0F30E0048F68F71084056
:101AF000274A02EB8501C1F8000C2648006880B235
:101B000000EBC500801D244931F81000C0F3090620
:101B1000A6B1BDF8000000F4006050B1B2B2618817
:101B2000B81DFEF75FFB3846FFF799FD0020BDE8C2
:101B3000FC81B2B26188E068FEF754FB6069304412
:101B40006061E0683044E0602069801B20612069AA
:101B500010B1A068B04206D929463846FFF700FA0E
:101B60000020606106E0208A83B229463846E26898
:101B700000F0CCFB00BF07480C38006880B2019031
:101B800000F4004000287FF45EAF00BFCFE7000004
:101B900000500040505C00400060004001460020C2
:101BA000704710B50446402300221146204600F03D
:101BB000BDF8802300221946204600F0B7F84023E4
:101BC00000221146204600F031FA402300228021F5
:101BD000204600F02BFA2078D4F8D42051688847AA
:101BE0000021204600F066FC0120E070002010BDBE
:101BF00010B50446D4F8D000806A20B1D4F8D000E3
:101C0000816A20468847002010BD000010B50446B8
:101C1000E07820710420E070D4F8D410C8688047C0
:101C20000548007810B1FFF74FFD02E00220FFF7F2
:101C3000B5FB002010BD0000BE00002010B504461A
:101C4000D4F8D410086980472079E0700020FFF7AD
:101C5000A5FB002010BD000010B50446012C04D1E6
:101C600041020548FEF70DFC04E04FF40071024804
:101C7000FEF705FC10BD00000010014070B50646DF
:101C80000C4615462B4622460021304600F03EFB0E
:101C9000002070BD70B506460C4615462B46224600
:101CA0008021304600F074FC002070BD10B5044661
:101CB0000948006840F4807048F68F710840064972
:101CC00008600520A07000231A461946204600F03F
:101CD0001DFB002010BD0000005C004070B50646F2
:101CE0000C4615460320B0702B4622460021304694
:101CF00000F00CFB002070BD10B504460420A0705D
:101D000000231A468021204600F042FC002010BD2E
:101D100070B506460C4615460220B0702B4622468A
:101D20008021304600F034FC002070BDF0B505463F
:101D30000C4604F07F01E61136B101EB410705F1D5
:101D4000100606EBC70005E001EB410705F1700640
:101D500006EBC7001AB90026467043802DE0012A21
:101D60002BD10126467083801E0CC680134F07EBD3
:101D70008106D6F8006C46F4807648F68F773E40B0
:101D8000DFF838C00CEB8107C7F8006C868826F0B6
:101D900001060B4F3F68BFB207EBC107DFF824C055
:101DA0004CF81760C68826F00107054E3668B6B2B3
:101DB00006EBC106361D4CF81670F0BD0050004011
:101DC000505C004000600040F0B5024601F07F002A
:101DD000CC1164B300EB400502F1100404EBC50321
:101DE0002B4D05EB8004D4F8004C04F040046CB19A
:101DF00005EB8004D4F8004C48F68F752C4044F075
:101E00004004234E06EB8005C5F8004C204E06EB3F
:101E10008005D5F8005C48F6BF7605EA060484F034
:101E200030051B4F07EB8006C6F8005C2CE000EB8A
:101E3000400502F1700404EBC503154D05EB800469
:101E4000D4F8004C04F480446CB105EB8004D4F861
:101E5000004C48F68F752C4044F480440C4E06EB41
:101E60008005C5F8004C0A4E06EB8005D5F8005CED
:101E70004BF68F7605EA060484F44055044F07EBD1
:101E80008006C6F8005C00BF00241C70F0BD000096
:101E90000050004070B502460B4603F07F00DC1195
:101EA000002C5FD000EB400502F1100404EBC501EB
:101EB0005D4D05EB8004D4F8004C04F040046CB197
:101EC00005EB8004D4F8004C48F68F752C4044F0A4
:101ED0004004554E06EB8005C5F8004C4C7894B391
:101EE000514D05EB8004D4F8004C04F480446CB1EF
:101EF00005EB8004D4F8004C48F68F752C4044F470
:101F00008044494E06EB8005C5F8004C464D05EB74
:101F10008004D4F8004C48F68F752C4044F04004FF
:101F2000414E06EB8005C5F8004C06EB8005D5F860
:101F3000005C4BF68F7605EA06043B4E06EB800507
:101F4000C5F8004C00BF384E06EB8005D5F8005CA4
:101F500048F6BF7605EA0604334E06EB8005C5F861
:101F6000004C5FE000EB400502F1700404EBC5019A
:101F70002D4D05EB8004D4F8004C04F480446CB182
:101F800005EB8004D4F8004C48F68F752C4044F4DF
:101F90008044254E06EB8005C5F8004C4C7894B380
:101FA000214D05EB8004D4F8004C04F040046CB1E2
:101FB00005EB8004D4F8004C48F68F752C4044F0B3
:101FC0004004194E06EB8005C5F8004C164D05EB94
:101FD0008004D4F8004C48F68F752C4044F48044BB
:101FE000114E06EB8005C5F8004C06EB8005D5F8D0
:101FF000005C48F6BF7605EA06040B4E06EB80054A
:10200000C5F8004C00BF084E06EB8005D5F8005C13
:102010004BF68F7605EA0604034E06EB8005C5F8FD
:10202000004C00BF70BD0000005000402DE9F041A1
:1020300004460D4605F07F0032B1012A35D0022A50
:1020400013D0032A42D11FE0AD4F07EB8006D6F82C
:10205000006C48F68F173E4046F40076DFF8A0C2C9
:102060000CEB8007C7F8006C30E0A54F07EB80064B
:10207000D6F8006C48F68F173E40DFF884C20CEBB0
:102080008007C7F8006C21E09D4F07EB8006D6F86B
:10209000006C48F68F173E4046F4C066DFF860C219
:1020A0000CEB8007C7F8006C10E0954F07EB80063B
:1020B000D6F8006C48F68F173E4046F48066DFF88D
:1020C00040C20CEB8007C7F8006C00BF00BFEE11E8
:1020D000002E7DD000EB400704F1100606EBC7018F
:1020E000874F07EB8006D6F8006C06F0400676B105
:1020F00007EB8006D6F8006C48F68F773E4046F036
:102100004006DFF8FCC10CEB8007C7F8006C4E7886
:102110007EBB4E8826F001067A4F3F68BFB207EBC0
:10212000C007DFF8E4C14CF81760DFF8D4C10CEB4E
:102130008007D7F8007C48F6BF7C07EA0C0686F0DB
:102140002007DFF8BC8108EB800CCCF8007C00286D
:102150000ED1474607EB8006D6F8006C48F68F771D
:102160003E4046F04006C4460CEB8007C7F8006CC2
:10217000BDE0FFE7624F07EB8006D6F8006C06F47F
:10218000804676B107EB8006D6F8006C48F68F776C
:102190003E4046F48046DFF868C10CEB8007C7F884
:1021A000006CDFF85CC10CEB8007D7F8007C4BF6C5
:1021B0008F7C07EA0C06DFF848C10CEB8007C7F8F4
:1021C000006C0CEB8007D7F8007C48F6BF7C00E081
:1021D0000AE007EA0C0686F03007DFF8248108EBF6
:1021E000800CCCF8007C82E000EB400704F1700624
:1021F00006EBC701424F07EB8006D6F8006C06F4E9
:10220000804676B107EB8006D6F8006C48F68F77EB
:102210003E4046F48046DFF8E8C00CEB8007C7F884
:10222000006C4E78FEB94E8826F00107354E3668B0
:10223000B6B206EBC006361DDFF8CCC04CF81670FF
:10224000DFF8BCC00CEB8007D7F8007C4BF68F7C26
:1022500007EA0C0686F40057DFF8A48008EB800C30
:10226000CCF8007C43E0264F07EB8006D6F8006CE4
:1022700006F0400676B107EB8006D6F8006C48F60B
:102280008F773E4046F04006DFF874C00CEB8007C5
:10229000C7F8006C1A4F07EB8006D6F8006C48F6BA
:1022A0008F773E4046F04006DFF854C00CEB8007C5
:1022B000C7F8006C0CEB8007D7F8007C4BF68F7CDE
:1022C00007EA0C06DFF838C00CEB8007C7F8006C93
:1022D0000CEB8007D7F8007C48F6BF7C07EA0C06B9
:1022E000DFF81CC00CEB8007C7F8006C00BF8B60E8
:1022F00000260E70CE600E614E61BDE8F0810000D8
:1023000000500040505C0040006000402DE9F0416A
:1023100004460D4605F07F0101EB410704F170060C
:1023200006EBC700C26003614678BEBB5E4F3F68E4
:10233000BFB207EBC107BF1DDFF870C10CEB47064A
:1023400087683E2F15D9D0F808C0CCF34F1790F806
:1023500008C00CF01F0CBCF1000F03D1A7F1010C59
:102360001FFA8CF74FF4004C4CEA872CC6F800C0DB
:1023700013E0D0F808C0CCF34F0790F808C00CF079
:10238000010CBCF1000F03D007F1010C1FFA8CF710
:102390004FEA872CC6F800C000BF71E0FFE7424F4C
:1023A0003F68BFB207EBC107BF1CDFF800C10CEBF1
:1023B000470687683E2F15D9D0F808C0CCF34F17D1
:1023C00090F808C00CF01F0CBCF1000F03D1A7F16E
:1023D000010C1FFA8CF74FF4004C4CEA872CC6F81E
:1023E00000C015E0D0F808C0CCF34F1790F808C033
:1023F0000CF01F0CBCF1000F03D1A7F1010C1FFA68
:102400008CF74FF4004C4CEA872CC6F800C000BF94
:10241000254F3F68BFB207EBC107BF1DDFF88CC077
:102420000CEB470687683E2F15D9D0F808C0CCF3CF
:102430004F1790F808C00CF01F0CBCF1000F03D12F
:10244000A7F1010C1FFA8CF74FF4004C4CEA872CD3
:10245000C6F800C013E0D0F808C0CCF34F0790F8DE
:1024600008C00CF0010CBCF1000F03D007F1010C07
:102470001FFA8CF74FEA872CC6F800C000BF00BFD8
:10248000DFF82CC00CEB8107D7F8007C4BF68F7C73
:1024900007EA0C0686F44057DFF8148008EB810C3D
:1024A000CCF8007CBDE8F081505C0040006000404A
:1024B0000050004030B5034600200FE00B4C04EB09
:1024C0008002D2F8002C48F68F7422400243074D58
:1024D00005EB8004C4F8002C421CD0B20428EDDBCC
:1024E00041F08002024C226030BD000000500040EC
:1024F0004C5C0040F0B5024601F07F00CC11B4B155
:1025000000EB400502F1100404EBC5031F4E06EB7F
:102510008005D5F8005C48F6BF7605EA060484F02D
:1025200010051A4F07EB8006C6F8005C16E000EBBA
:10253000400502F1700404EBC503144E06EB800560
:10254000D5F8005C4BF68F7605EA060484F48055D6
:102550000E4F07EB8006C6F8005C00BF90B90B4E2B
:1025600006EB8005D5F8005C4BF6BF7605EA06045D
:1025700084F4805585F01005044F07EB8006C6F8FB
:10258000005C00BF01241C70F0BD00000050004042
:102590002DE9F84306460F469046994600200090E4
:1025A00007F07F0505EB450106F1100000EBC104C3
:1025B000C4F80C80C4F8109000206061A168206904
:1025C000884202D9A068009001E0206900906078FC
:1025D00080B9009B9AB26188E06800F01FF9244836
:1025E0000099006880B200EBC500801C214A42F8C7
:1025F00010102BE01E480099006880B200EBC50067
:10260000801C1C4A42F8101019480099006880B2DA
:1026100000EBC500801D42F81010174901EB850042
:10262000D0F8000C00F0400030B1009B9AB2E18875
:10263000E06800F0F3F805E0009B9AB2A188E0683A
:1026400000F0ECF800212846FDF7F8FD0A4A02EBFD
:102650008501D1F8001C48F6BF7201EA020080F043
:102660003001054B03EB8502C2F8001CBDE8F8837E
:10267000505C0040006000400050004010B5002059
:10268000FEF746F80121C805FDF784FF10BD0000E4
:1026900008B501211020FDF78DFF4FF40070ADF853
:1026A000000010208DF8030003208DF80200694619
:1026B0000148FDF759FE08BD0010014008B54FF470
:1026C000C060FDF75BFF14208DF8000001208DF83D
:1026D000010000208DF8020001208DF803006846FB
:1026E000FDF7E6FE08BD00001CB50020019000903B
:1026F0004448006880B20190BDF8040000F4004036
:1027000041490968084020B1404800684168404894
:102710008847BDF8040000F480603B490968084020
:1027200040B14FF6FF30374908603848006801690A
:1027300037488847BDF8040000F4804032490968F2
:10274000084040B14BF6FF702E4908602F480068E2
:1027500081682F488847BDF8040000F400502A49DA
:102760000968084040B14DF6FF70264908602748C7
:102770000068C16826488847BDF8040000F480500E
:1027800021490968084040B14EF6FF701D490860B4
:102790001E480068016A1E488847BDF8040000F41E
:1027A000006019490968084040B118480068C169CB
:1027B000174888474FF2FF7012490860BDF80400BF
:1027C00000F4007010490968084040B14FF6FF500E
:1027D0000C4908600D48006841690D488847BDF8FC
:1027E000040000F4807008490968084040B14FF6C1
:1027F000FF6004490860054800688169044888470B
:102800001CBD0000445C004054000020B8000020C3
:102810007001002010B5FFF767FF10BDF0B513463B
:102820005F1C7E10084F07EB4102344609E0057833
:10283000401C077845EA072722F8027B921C401CBF
:10284000641E002CF3D1F0BD0060004070B504465A
:10285000012C5FD13048C58806893048007920B105
:10286000012806D002280ED108E000202A49C8809D
:102870000BE04FF440502849C88006E04FF4005068
:102880002549C88001E0022070BD00BF234840797F
:1028900020B1012806D002280ED108E000201E49F0
:1028A00008810DE04FF480601B49088108E04FF477
:1028B000C0601949088103E01749CD800220E3E791
:1028C00000BF16488079072802D0082810D103E0FD
:1028D00000201149888010E00F48008918B90020B5
:1028E0000D49888003E04FF480500B49888004E054
:1028F00009490E81CD800220C6E700BF0748006865
:1029000005490860002088810C2048810120FDF7DE
:10291000BBFC00BF0020B7E74C02002024000020D1
:1029200070B505460C461646042D15D007DC7DB162
:10293000012D0ED0022D0DD0032D3FD10BE0202D07
:102940000BD0212D1FD0222D36D0232D36D134E0AF
:1029500035E034E033E032E031E02078617840EA7D
:102960000120A17840EA0140E17840EA0160154980
:1029700008602079087160794871A0798871012018
:10298000FFF764FF1BE00F48007820700D480088B7
:10299000000A60700B480068000CA07009480068CD
:1029A000000EE07007480079207106484079607198
:1029B00004488079A07102E001E000E000BF00BFA0
:1029C000002070BD240000202DE9F04104460E4691
:1029D0001746002510E0715D0A4A52F82400FDF701
:1029E00080FF00BF074951F824008021FDF788FFD0
:1029F0000028F7D0681C85B2BD42ECDB0020BDE8A2
:102A0000F08100005801002070B504460D461646BE
:102A100016488079072802D0082816D10BE01449FF
:102A200051F82400FDF758FF00F07F001149124AC9
:102A3000126888540BE00E4951F82400FDF74CFF52
:102A40000C490D4A1268885401E0022070BD00BF95
:102A500009480068401C0849086008460068B0F54D
:102A6000806F01D1002008600020EFE724000020E3
:102A7000580100209B030020D40000200020704754
:102A800010B504467CB94FF4E130084908600020D5
:102A90008880C880088188810C2048810120FDF74A
:102AA000F3FB002010BD0220FCE700004C020020D8
:102AB00002E008C8121F08C1002AFAD17047704707
:102AC000002001E001C1121F002AFBD17047000065
:102AD000FFF7DEFDFFF7D2FDFFF7F0FD054B064ADD
:102AE00006490748FEF725FC0548FEF7C8F900BF70
:102AF000FEE7000040000020E80000200000002069
:102B0000700100201201000202000040E9288A0141
:102B10000001010203010403090409024300020148
:102B200000803209040000010202010005240010A7
:102B30000105240100010424020205240600010706
:102B400005820308000A09040100020A00000007C8
:102B5000050302400000070581024000000000005C
:102B6000010004000100020010000000100000003D
:102B70004000000040000000002000200100004054
:102B80001000000010000000040000000800000019
:102B900000200020010000400200020000000100AF
:102BA0000D000D0000000E0028002800060028007F
:102BB00000400000000002000400000004000000CB
:102BC00004000000040000000002040000040800EB
:102BD00025002600F42B00080000002070010000F2
:102BE0008C010008D42C000870010020300A00007D
:102BF000C02A00081311171B0861041A71041AA1D6
:102C0000041AD90413E1161B082D0873060333C2F6
:102C100001120813812A1B087D041321291B0809AE
:102C2000081AC9081A23281A25041A21041A290483
:102C30001A2704811B071254120D140899134C080B
:102C40006B1508134514140893101B0869101A4FCC
:102C5000081AB51013C7111B081F741ADD0441139D
:102C600005181408351A14089D1B1B08FD501AA3DB
:102C7000081AF1041AEF0C130D1C1B083D042294D2
:102C80001320042998011E72FF13E10C1B08110484
:102C90001A8D041BD90ABC19081A7D9C411A3D0CD7
:102CA000133D0B1B08D5041A55141A7D10D1680961
:102CB00001020304060708090C413C100140045AB4
:102CC000180469101A08041A0C041A38041244492A
:042CD0001099040053
:0400000508000131BD
:00000001FF
