:020000040800F2
:10000000C8100020CD0100087509000899060008F5
:10001000D9010008DB010008DD0100080000000034
:100020000000000000000000000000005B1300085A
:10003000E101000800000000590A00082914000826
:10004000E7010008E7010008E7010008E7010008F0
:10005000E7010008E7010008E7010008E7010008E0
:10006000E7010008E7010008E7010008E7010008D0
:10007000E7010008E7010008E7010008E7010008C0
:10008000E7010008E7010008E7010008E7010008B0
:1000900035300008E7010008E7010008E701000823
:1000A000E7010008E7010008E7010008E701000890
:1000B000E7010008E7010008E7010008E701000880
:1000C000E7010008E7010008E7010008E701000870
:1000D000E7010008E7010008E7010008E701000860
:1000E000E7010008E7010008E7010008E701000850
:1000F000E7010008E7010008E7010008E701000840
:10010000E7010008E7010008E7010008E70100082F
:10011000E7010008E7010008E7010008E70100081F
:10012000E7010008E7010008E7010008E70100080F
:1001300000F002F800F03AF80AA090E8000C8244BF
:100140008344AAF10107DA4501D100F02FF8AFF29C
:10015000090EBAE80F0013F0010F18BFFB1A43F0A5
:1001600001031847B02F0000D02F0000103A24BF21
:1001700078C878C1FAD8520724BF30C830C144BF0C
:1001800004680C607047000000230024002500264E
:10019000103A28BF78C1FBD8520728BF30C148BFEA
:1001A0000B6070471FB51FBD10B510BD00F031F8D2
:1001B0001146FFF7F7FF02F059FF00F04FF803B4C4
:1001C000FFF7F2FF03BC00F053F800000948804736
:1001D00009480047FEE7FEE7FEE7FEE7FEE7FEE729
:1001E000FEE7FEE7FEE7FEE704480549054A064B41
:1001F000704700002D14000831010008C80A0020D3
:10020000C8100020C80C0020C80C002070477047A0
:100210007047754600F028F8AE460500694653461B
:1002200020F00700854618B020B5FFF7DDFFBDE8D8
:1002300020404FF000064FF000074FF000084FF04D
:10024000000B21F00701AC46ACE8C009ACE8C009DE
:10025000ACE8C009ACE8C0098D4670470446AFF36E
:1002600000802046FFF7ABFF00487047680A002077
:1002700001491820ABBEFEE72600020070470000CF
:10028000F0B5561C7510074E06EB41042B4605E0F1
:1002900034F8047B20F8017B401C5B1E002BF7D157
:1002A000F0BD000000600040012009490860002006
:1002B0000860091D08600649103108604FF47F404E
:1002C000044908600846008880B201490860704708
:1002D000405C00405C00002030B504464FF47020C4
:1002E00000F06AF80546B5B90C48006940F0020014
:1002F0000A49086108464461006940F0400008610D
:100300004FF4702000F058F805460448006920F0CA
:10031000020002490861284630BD0000002002406A
:1003200000200B49C96801F0010109B101200EE06C
:100330000749C96801F0100109B1022007E004492A
:10034000C96801F0040109B1032000E000207047F2
:100350000020024070B504460D464FF4702000F0B6
:100360002BF806468EB90A48006940F0010008499A
:10037000086125604FF4702000F01EF8064604481E
:10038000006920F0010002490861304670BD00009C
:10039000002002400548006900F0800020B10448B8
:1003A000024948600348486070470000002002404E
:1003B00023016745AB89EFCD00B50346012200BF9D
:1003C000FFF7AEFF02465B1E012A01D1002BF7D1D9
:1003D000012A00D10422104600BD10B5FFF7DAFF54
:1003E000002010BDF0B5044608480E1808E00025AE
:1003F00004E016F8010B04F8010B6D1C9542F8D3CC
:100400001800A3F10103F2D1F0BD00000040000884
:100410002DE9F05F834688461F464FEAD8203949C8
:1004200001EBC025AA465E4608464044A84225D9AD
:10043000002405E05AF8040B334941F82400641CF9
:10044000FF2CF7D92846FFF747FF002400BF2E48AE
:1004500050F824102846FFF77DFF2D1D601C044630
:10046000FF28F4D9002400BF02CE2846FFF772FF10
:100470002D1D601C0446FF28F6D97F1E4FEA570940
:1004800010E02846FFF728FF002400BF02CE2846D0
:10049000FFF760FF2D1D601C0446B0F5007FF5D30B
:1004A000A9F10109B9F1000FEBD107F0010028B360
:1004B000002407E004F5807056F82000124941F846
:1004C0002400641CFF2CF5D92846FFF705FF002403
:1004D00006E056F824102846FFF73CFF2D1D641C4B
:1004E000FF2CF6D9002407E0074850F824102846CE
:1004F000FFF730FF2D1D641CFF2CF5D90020BDE84F
:10050000F09F000000400008C801002010B501293C
:100510000FD1104B03EB8002D2F8002C48F68F73FA
:100520001A4042F040020B4C04EB8003C3F8002C4D
:100530000FE071B9074B03EB8002D2F8002C48F6AC
:100540008F731A4042F48042024C04EB8003C3F8DC
:10055000002C10BD005000402DE9F041024600255E
:100560000026002000230024002791F803C00CF08F
:100570000F0591F803C00CF0100CBCF1000F03D074
:1005800091F802C04CEA050591F800C0BCF1000FDB
:1005900031D0146800202BE04FF0010C0CFA00F36E
:1005A000B1F800C00CEA03069E4220D183004FF050
:1005B0000F0C0CFA03F7BC4305FA03FC4CEA0404E5
:1005C00091F803C0BCF1280F06D14FF0010C0CFAD2
:1005D00000FCC2F814C00AE091F803C0BCF1480F57
:1005E00005D14FF0010C0CFA00FCC2F810C0401C01
:1005F0000828D1D31460B1F800C0BCF1FF0F34D982
:10060000546800202EE000F1080C4FF0010808FAB1
:100610000CF3B1F800C00CEA03069E4221D183001E
:100620004FF00F0C0CFA03F7BC4305FA03FC4CEA3D
:10063000040491F803C0BCF1280F05D100F1080CA7
:1006400008FA0CF8C2F8148091F803C0BCF1480F06
:1006500007D100F1080C4FF0010808FA0CF8C2F8B5
:100660001080401C0828CED35460BDE8F081416161
:1006700070470161704700000549086838B1054AB4
:100680009070010AD170010C1171010E5171704707
:10069000002102401C00002000BFFEE710B5044608
:1006A0000D48007B48B90C48806830B10B48007891
:1006B00018B90221204602F02DFB8121204602F0CC
:1006C00029FB06480078022805D11F23024A02218F
:1006D000204602F02BFA10BD080A0020CB000020B3
:1006E00070B50446B4F89C0085B229484068294991
:1006F00048602748806888601F2D10D12448006812
:10070000254988420BD12248407B012807DC20483C
:10071000807B012803DB1E48807B10280CDD1C49F0
:10072000487B2022052100F0C3FC02201B490870F1
:100730002046FFF7B3FF2AE01548417B00F10F0286
:10074000204600F049FA002803DA2046FFF7A6FF0A
:100750001DE013480078022819D0114800780128BC
:1007600015D00F480078032811D00E4800880028C3
:1007700006DD0C4802880C49204600F0D7F806E058
:100780000848008818B90021204600F0AFF870BD75
:10079000080A0020280A002055534243CB000020BD
:1007A000CA000020C80000200806002070B50546D9
:1007B0000C460C480078022807D18121284602F017
:1007C000A9FA0020074908700BE004F08000802897
:1007D00007D104480078012803D00121284600F001
:1007E00085F870BDCB00002070B504460D4610485A
:1007F0000078022804D0032811D0042814D10DE079
:100800000C48417B00F10F02204600F0E5F900287A
:1008100003DA0121204600F069F806E000BF00215C
:10082000204600F063F800E000BF00BF70BD00008C
:10083000CA000020080A002070B504460D460D4885
:10084000007810B1012812D103E02046FFF748FFDD
:100850000EE00948417B00F10F02204600F0BCF990
:10086000002803DA0121204600F040F800E000BF34
:1008700000BF70BDCA000020080A00200021014A04
:1008800011707047CA00002010B5044600200849C6
:100890000870084908700848006801680020884707
:1008A0001F23064A0221204602F040F910BD000035
:1008B000CA000020CB00002044000020080A0020CD
:1008C00010B504460020064908700120054908704B
:1008D0001F23054A0221204602F028F910BD00001E
:1008E000CA000020CB000020080A002070B5054691
:1008F0000C460A480A490860084604730020094962
:1009000008700D23064A8121284602F051FA1F2360
:10091000054A0221284602F009F970BD5553425399
:10092000280A0020CA000020080A002070B50646E8
:100930000D4614460C488068A04202D20A488068DE
:1009400000E0204684B209488068001B074988609F
:100950000020087304200649087023462A46812196
:10096000304602F025FA70BD080A0020280A00204F
:10097000CA0000207047000070B50021002200234B
:10098000C478002C4DD02C4C246804F4E064B4F5F9
:10099000E06F02D100BF042326E0274C246804F452
:1009A000E064B4F5C06F02D1012203231CE0224CA5
:1009B000246804F4E064B4F5A06F02D1022202239B
:1009C00012E01D4C246804F4E064B4F5806F02D199
:1009D0000322012308E0184C246804F4E064B4F511
:1009E000407F01D1042200234478C2F1040504FAB7
:1009F00005F18478C3F104060F2535412C402143CD
:100A000009010E4C0678A155047804F01F05012455
:100A1000AC4005786D11AD0005F1E025C5F8004149
:100A200009E0047804F01F040125A540044C067871
:100A3000761144F8265070BD0CED00E000E400E0B3
:100A400080E100E002490143024A11607047000062
:100A50000000FA050CED00E07047000029B1064ADD
:100A6000D2690243044BDA6104E0034AD26982434B
:100A7000014BDA61704700000010024029B1064ABC
:100A800092690243044B9A6104E0034A92698243EB
:100A9000014B9A6170470000001002400549496807
:100AA00021F44001034A51601146496801435160F5
:100AB00070470000001002400648006880B220F035
:100AC0000400044908600846006880B220F008006D
:100AD00008607047405C004002460020014B1880CF
:100AE00070470000C800002070B506460C46154649
:100AF000601907490968884207D921220521304633
:100B000000F0D6FA4FF0FF3070BD0020FCE7000087
:100B10000C010020014600207047000030B504465B
:100B20000A46507800F0010010B10F4B072108E091
:100B30000E480068C06904EBC40500EB8503187912
:100B4000411D1079884201DD084600E01079084D0A
:100B5000288004E0481E81B2585C064D6854002984
:100B6000F8D1002030BD0000FA3000084400002019
:100B7000C80000200806002010B502460B460821D8
:100B80000648018005E0481E81B20548405C054CDE
:100B900060540029F7D1002010BD0000C8000020DB
:100BA000093100080806002010B502460B4608214E
:100BB0000648018005E0481E81B20548405C054CAE
:100BC00060540029F7D1002010BD0000C8000020AB
:100BD000013100080806002070B505460E4614468F
:100BE0003548056020781E2831D00DDC122824D02D
:100BF00005DCC0B103281BD0042854D14FE01A28CB
:100C00002AD01B284FD11DE02A283ED006DC2328FD
:100C10002CD025282FD0282845D131E02F2839D0B5
:100C20005A2840D11DE02146304600F06BFA70BDD5
:100C30002146304600F0EAF9F9E721463046FFF751
:100C40006DFFF4E72146304600F054FAEFE7214605
:100C50003046FFF741FFEAE721463046FFF7A4FFA1
:100C6000E5E721463046FFF787FFE0E721463046BB
:100C700000F08EF9DBE72146304600F04DF9D6E76B
:100C80002146304600F0D0F8D1E72146304600F04A
:100C900089FACCE72146304600F05CFAC7E73046D7
:100CA000FFF738FFC3E720220521304600F000FAA5
:100CB0004FF0FF30BBE70000180100202DE9F041A4
:100CC000054621480068B0F5806F02D21E480068D2
:100CD00001E04FF4806004461C480068B4FBF0F06B
:100CE00086B21B480068334607691A481A490268E9
:100CF0002846B847002808DA11220421284600F0C7
:100D0000D7F94FF0FF30BDE8F081A3B2124A81213C
:100D10001248006802F04CF80E48006820440D4963
:100D2000086009480068001B074908600C48806893
:100D3000001B0B4988600448006810B9032009496A
:100D400008700020DFE700001401002008010020E7
:100D50004400002010010020080600201801002097
:100D6000280A0020CA0000202DE9F0410546274846
:100D70000068B0F5806F02D22448006801E04FF4AB
:100D80008060044622480068B4FBF0F086B2214837
:100D90000068334647692048204902682846B8471A
:100DA000002808DA03220421284600F081F94FF0D8
:100DB000FF30BDE8F08118480068204416490860FB
:100DC00012480068001B1149086015488068001B24
:100DD000134988600D48006828B90021114800684F
:100DE000FFF784FD10E009480068B0F5806F02D27B
:100DF0000648006801E04FF4806083B2074A022190
:100E00000848006801F092FE0020D2E7140100209B
:100E100008010020440000201001002008060020E6
:100E2000280A00201801002070B505460C463348FA
:100E3000007800285AD13248007B00F080008028DA
:100E400008D02F49487B2022052100F031F94FF0CE
:100E5000FF3070BD2B48006881682846884738B14C
:100E60003A220221284600F023F94FF0FF30F0E744
:100E7000A0780006E17840EA0140217940EA0120AB
:100E80006179084320490860207AE17940EA01202D
:100E90001E4908600846008882B21B48016828463F
:100EA000FFF722FE002802DA4FF0FF30D1E70220E0
:100EB00012490870144800681549096848431249E6
:100EC0000860124800681249096848430F490860E1
:100ED0000B4880680968884208D00949487B20226D
:100EE000052100F0E5F84FF0FF30B2E74FF48060E5
:100EF000084908802846FFF7E1FEAAE7CA0000205B
:100F0000080A0020440000201001002014010020E5
:100F100008010020C800002070B504460D4617489F
:100F20000068174A174943682046984738B13A2263
:100F30000221204600F0BCF84FF0FF3070BD114890
:100F40000068411E080E104A1070080C5070080A04
:100F50009070D1700A480068000E1071084800684F
:100F6000000C507106480088000A9071044800780F
:100F7000D0710820054A10800020DFE744000020DF
:100F8000080100200C01002008060020C8000020F5
:100F90007CB505460E46002404E00020184908559B
:100FA000601C84B20C2CF8DB1648006801AA694664
:100FB00043682846984738B13A220221284600F073
:100FC00077F84FF0FF307CBD0098411E08200C4A96
:100FD000D070080E1071080C5071080A9071D17110
:100FE000022010720198000C50720198000A907251
:100FF0000198D0720C20044A10800020E3E7000022
:101000000806002044000020C800002010B5034658
:10101000002204E00020214CA054501CC2B2122A2D
:10102000F8DB70201D4C20700C20E0711C4800780B
:101030001C4C2478A04227D01948007800EB4000CF
:10104000194C14F82000154CA0701548007800EBDE
:101050004000154C04EB8000407A104C207310487F
:10106000007800EB4000104C04EB8000007A0B4C41
:1010700060730B480078401C094C207020460078B3
:10108000042801D1002020700879122801DD1220E7
:1010900000E00879054C2080002010BD08060020E3
:1010A0000401002005010020380A0020C8000020AB
:1010B00030B50E4B1B7803EB43030D4C04F82310A3
:1010C00013020A4C247804EB4404094D05EB840414
:1010D0002372064B1B785B1C044C237023461B7841
:1010E000042B01D10023237030BD00000501002036
:1010F000380A002002460020014B1880704700008B
:10110000C800002070B504460D460F48806840B105
:101110000D49487B20220521FFF7CAFF4FF0FF3021
:1011200070BD0A48006881682046884738B13A2275
:1011300002212046FFF7BCFF4FF0FF30F0E7002010
:101140000349088000BFEBE7080A002044000020A4
:10115000C800002070B505460C46607800F002001B
:10116000022807D1242205212846FFF7A1FF4FF0CE
:10117000FF3070BD0848008882B2084801682846E0
:10118000FFF7B2FC002802DA4FF0FF30F1E7002051
:101190000349088000BFECE7140100201001002083
:1011A000C800002070B505460C464348007800286A
:1011B0007BD14248007B00F08000802808D13F4965
:1011C000487B20220521FFF773FF4FF0FF3070BDF1
:1011D0003B48006881682846884738B13A22022196
:1011E0002846FFF765FF4FF0FF30F0E7344800680E
:1011F000C1682846884738B1272202212846FFF7D0
:1012000057FF4FF0FF30E2E7A0780006E17840EAB0
:101210000140217940EA01206179084329490860A9
:10122000207AE17940EA01202749086008460088D1
:1012300082B2244801682846FFF756FC002802DAEB
:101240004FF0FF30C3E71F48006820490968484352
:101250001C4908601C4800681C49096848431A4931
:101260000860164880680968884208D01349487B9E
:1012700020220521FFF71CFF4FF0FF30A7E70120D8
:101280000D49087010480068B0F5806F03D20E4811
:10129000006802E009E04FF4806083B20C4A02214A
:1012A0000C48006801F042FC03E02846FFF75CFDB3
:1012B0008DE700208BE70000CA000020080A00200C
:1012C000440000201001002014010020080100202B
:1012D000080600201801002003464FF4F87008604B
:1012E0004FF480601060002070470020704710B5F8
:1012F0000446FFF772F810B14FF0FF3010BD002028
:10130000FCE70146002070470146002070472DE9A8
:10131000F04107460C4615461E4633464FF48062A0
:1013200029462046FFF75EF810B10520BDE8F081A0
:101330000020FBE72DE9F04107460C4615461E4606
:1013400033464FF4806229462046FFF761F810B11A
:101350000520BDE8F0810020FBE7704710B500F0E4
:1013600001F810BD0CB50020019000902C480068D9
:1013700040F480302A49086000BF2948006800F422
:10138000003000900198401C0190009820B94FF661
:10139000FF7101988842F0D12148006800F40030C4
:1013A00010B10120009001E0002000900098012879
:1013B00034D11B4840681A49486008464068486074
:1013C0000846406840F48060486008464068154917
:1013D0000840134948600846406840F48810486057
:1013E0000846006840F08070086000BF0C48006844
:1013F00000F000700028F9D00948406820F0030090
:10140000074948600846406840F00200486000BF55
:101410000348406800F00C000828F9D10CBD00001A
:1014200000100240FFFFC0F77047000010B51148E0
:10143000006840F001000F490860084640680E4906
:1014400008400C494860084600680C4908400949B2
:1014500008600846006820F480200860084640685C
:1014600007490840034948604FF41F008860FFF7B0
:1014700075FF10BD001002400000FFE8FFFFF6FE00
:10148000FFFF00F770B505460C460026207800F0F7
:101490001F0020B101281DD0022850D130E0E8788B
:1014A000022802D0032812D100E000BF6088012882
:1014B00005D100206871284601F02EF806E060880A
:1014C000022803D12146284600F02BF900E000BF96
:1014D00000BF39E0A878022802D003280DD104E02B
:1014E0002146284600F01DF908E02079012803DD97
:1014F0002146284600F015F900E000BF00BF23E0B8
:101500002679E878022802D0032815D107E02EB109
:10151000802E03D02146284600F003F90DE06088B4
:1015200030B92EB1802E03D03146284601F05CF848
:10153000284600F0F1FF00E000BF00BF04E02146B4
:10154000284600F0EEF800BF00BF70BD70B504463D
:101550000D46D4F8A0002946426820469047002056
:1015600070BD10B50446012000F094FF0520E07026
:1015700010BD000070B505460E4606EB460105F1AC
:10158000100000EBC104002E3CD1A87802282AD11B
:10159000A168206988420AD9A1682069401A20619F
:1015A000208A82B22846E16800F092FF45E0A168F7
:1015B0002069884207D10020206100221146284678
:1015C00000F086FF39E0D5F8A000806938B1E878EE
:1015D000032804D1D5F8A000816928468847284609
:1015E00000F082FF29E0A878042826D1144800786A
:1015F00018B313480178284601F06CFB002010490D
:1016000008701AE0D4E90401401A2061206968B921
:10161000D5F8A000006A80B1E87803280DD1D5F88C
:10162000A0003146026A2846904706E0208A83B22D
:1016300031462846E26801F0BBFB002070BD000087
:101640006000002070B504460E4606EB460104F12A
:10165000580000EBC10566BBA07803281ED1A9681D
:10166000286988420AD9A9682869401A2861288A05
:1016700082B22046E96800F01FFF27E0D4F8A000FE
:10168000C06938B1E078032804D1D4F8A000C1695A
:1016900020468847204600F03FFF17E0A078052845
:1016A00014D10B48006848F68F610840084908606B
:1016B0000CE0D4F8A000406A40B1E078032805D1DE
:1016C000D4F8A0003146426A20469047002070BD01
:1016D000005C004001460020704770B504460D468E
:1016E000E078032815D1287901280DDCD4F8A00072
:1016F0002946C268204690470646E88840B93EB968
:10170000204600F009FF03E02946204600F009F8D2
:1017100004E02946204600F004F800BF00BF002086
:1017200070BD70B504460D460021204601F0F2FA66
:1017300070BD38B504460D4600200090E8880128A9
:1017400004D029462046FFF7ECFF13E0E07802289A
:1017500002D003280CD105E001226946204600F0A2
:10176000E7FE06E00122611C204600F0E1FE00E0F9
:1017700000BF00BF38BDF8B504460E46307800F013
:101780001F0000287AD170880012082863D2DFE891
:1017900000F0620411196262585D2078D4F8A81034
:1017A0000A68694690470546F088402801D108201C
:1017B000009055E02078D4F8A010CA6A6946904796
:1017C00005464DE0B078062834D2DFE800F0030B80
:1017D000131B232B2078D4F8A8104A686946904739
:1017E00005462CE02078D4F8A8108A68694690470E
:1017F000054624E02078D4F8A810CA6869469047C6
:1018000005461CE02078D4F8A8100A69694690477C
:10181000054614E02078D4F8A8104A696946904734
:1018200005460CE02078D4F8A8108A6969469047EC
:10183000054604E031462046FFF773FFF8BD00BFC0
:101840000EE031462046FFF76CFFF7E731462046B1
:10185000FFF767FFF2E731462046FFF762FFEDE74B
:1018600000BFBDF8000090B1F08880B1F088BDF8ED
:101870000010884203DDBDF8000001E008E0F088B8
:101880000090BDF800202946204600F051FE0AE0F5
:10189000307800F01F00012805D1D4F8A0003146AF
:1018A00082682046904700BFC8E770B504460D46E1
:1018B000E078022802D0032814D104E0294620460B
:1018C000FFF72FFF0FE02879012806DCD4F8A000ED
:1018D000294602692046904703E029462046FFF743
:1018E00020FF00E000BF00BF70BD7CB504460E467F
:1018F000002001900090307800F01F0020B10128F6
:1019000019D0022864D132E0E078022802D00328FE
:101910000ED100E000BF607920B1BDF8040040F0B6
:1019200002000190022201A9204600F001FE00E021
:1019300000BF00BF51E0E078022802D0032813D195
:1019400004E031462046FFF7ECFE0EE03079012836
:1019500005DC022201A9204600F0EAFD03E0314641
:101960002046FFF7DEFE00E000BF00BF35E035791E
:10197000E078022802D0032827D107E02DB1802D7E
:1019800003D031462046FFF7CCFE1FE005F0800073
:1019900080280BD105F07F0000EB400104F110001E
:1019A00010F8310058B10120009008E005EB450126
:1019B00004F1580010F8310008B101200090022213
:1019C0006946204600F0B4FD00E000BF00BF04E01F
:1019D00031462046FFF7A5FE00BF00BF7CBD70B5B5
:1019E00013460122B0B103261446551CEAB20E5527
:1019F0000AE010F8016B1446551CEAB20E55002699
:101A00001446551CEAB20E550478002CF1D11A8008
:101A10001C780C7070BD2DE9F04104460D46164649
:101A20001F462046FFF756FEC4F8A060C4F8A47015
:101A3000C4F8A850FEF720FE00206071012020703D
:101A4000FEF732FCD4F8A41008688047BDE8F081A6
:101A500070B505460C466078FE2802D0FF283AD1C2
:101A600025E06088E0B9E088012819D1207800F0ED
:101A70008000802814D11C490968886980471B4967
:101A8000087008460078002804DD0122284600F08E
:101A90004FFD0BE021462846FFF743FE022070BDB4
:101AA00021462846FFF73DFE0220F8E719E060884E
:101AB00050B9E08840B9207800F08000802803D039
:101AC0002846FEF7FDFE05E021462846FFF729FEE1
:101AD0000220E4E705E021462846FFF722FE022027
:101AE000DDE700BF0020DAE744000020000100200D
:101AF00070B505460C4621792846FEF757FE0020B2
:101B000070BD70B504460D4629462046FEF76CFEB2
:101B1000002070BD70B504460D4629462046FEF7EC
:101B20008BFE002070BD70B504460D468121204615
:101B300000F0C0FD0221204600F0BCFD2046FEF76B
:101B40009DFE002070BD0000024620200880014854
:101B500070470000DA30000802460020704700009D
:101B600070B504460D4601220249204600F0E0FC13
:101B7000002070BD0101002070B504460D46982379
:101B800000228121204600F0E1FCD823002202211E
:101B9000204600F0DBFC402302228121204600F099
:101BA00055FE402302221146204600F04FFE2046FB
:101BB000FEF76AFE002070BD02468878014B18705F
:101BC000002070470101002082790A70C2794A70B2
:101BD000037A427A03EB02224A80837AC27A03EBC9
:101BE00002228A80037B427B03EB0222CA8001220D
:101BF000827070477047000010B50446052C01D074
:101C0000234804702248007806283BD2DFE800F021
:101C1000031016243B3C1F48007828B9FEF74CFF00
:101C200004201B49087002E00320194908702CE0C9
:101C3000FEF742FF01201749087000BF0F20164928
:101C400008701648006880B240F010001349086020
:101C500003200F49087018E00F480078401E0E4915
:101C600008700846007860B90C48006880B220F01F
:101C700010000A4908600420054908700020054941
:101C8000087002E000BF00BF00BF00BF10BD000031
:101C9000C4000020C7000020C5000020405C0040B8
:101CA00070B504460D46A888D0B9E888C0B9A878B0
:101CB00000F07F000D490870E078032804D1294620
:101CC0002046FFF72EFD0FE0204600F025FC0748D8
:101CD000007810B10220E07006E00120E07003E01F
:101CE00029462046FFF71DFD70BD00006000002062
:101CF00070B504460D46D4F8A00029460268204677
:101D00009047D4F8A41088688047002070BD000078
:101D100070B504460D46A878294908700846007831
:101D2000012804DD29462046FFF7FBFC46E0E07869
:101D3000022802D003283FD114E02148007868B17E
:101D40001F48007860700320E0701D48017820462D
:101D5000FFF7CEFF204600F0DFFB02E0204600F058
:101D6000DBFB2AE01648007868B90220E0701448CE
:101D700000786070124801782046FFF7E7FB2046A4
:101D800000F0CAFB17E060780D49097888420FD04F
:101D900061782046FFF7DAFB094800786070084850
:101DA00001782046FFF7A4FF204600F0B5FB02E0D3
:101DB000204600F0B1FB00E000BF00BF70BD000096
:101DC00098000020704770B504460E460025307814
:101DD00000F01F0020B1012814D0022846D127E0CE
:101DE000E078022802D0032809D100E000BF708803
:101DF000012803D16071204600F08EFB00E000BF97
:101E000000BF38E0A078022802D003280DD104E0FA
:101E100031462046FFF785FC08E03079012803DDD4
:101E200031462046FFF77DFC00E000BF00BF22E006
:101E3000E078022802D0032815D107E02DB1802DCB
:101E400003D031462046FFF76CFC0DE0708830B9B6
:101E50002DB1802D03D02946204600F05BFF20469F
:101E600000F05AFB00E000BF00BF04E0314620460E
:101E7000FFF757FC00BF00BF70BD70B504460D46AC
:101E8000E078022802D0032814D104E02946204635
:101E9000FFF747FC0FE02879012806DCD4F8A00002
:101EA000294642692046904703E029462046FFF72D
:101EB00038FC00E000BF00BF70BD1CB50446694699
:101EC0002046FFF781FE9DF8000000F0600020B181
:101ED000202807D040280FD109E06946204600F0AD
:101EE00013F80EE069462046FFF7F7FB09E0694664
:101EF000204600F097F804E00021204600F00AFF99
:101F000000BF00BF00201CBD70B505460C466078C0
:101F1000034951F82020214628469047002070BDF3
:101F2000640000200348006880B240F00C000149C2
:101F300008607047405C00407047000070B505467F
:101F40000C462246024903A0FFF749FD004870BD38
:101F5000C80500204D534320436F6E66696700003B
:101F6000024612200880014870470000A030000897
:101F700070477047704770477047000070B505465E
:101F80000C462246024903A0FFF729FD004870BD18
:101F9000C80500204D534320496E74657266616325
:101FA00065000000024604200880014870470000D8
:101FB000B230000870B505460C462246024903A01F
:101FC000FFF70DFD004870BDC805002047443332BF
:101FD0004D6963726F656C656374726F6E6963736C
:101FE0000000000070B505460C462246024903A0D9
:101FF000FFF7F5FC004870BDC80500204D61737304
:102000002053746F7261676520696E204653204DBE
:102010006F64650002460620088001487047000092
:102020001C00002002460020704710B50446052021
:10203000FFF7E2FD002010BD0146002070470000C0
:102040002DE9FC4107460024002500200190009066
:10205000F9E0BDF8040000F00F05814901EB8500AF
:10206000D0F8000C80B20090BDF8040000F0100021
:10207000002879D105EB450107F1100000EBC10400
:10208000BDF8000000F080000028E1D00026B04636
:10209000734901EB8500D0F8000C48F60F71084039
:1020A0006F4A02EB8501C1F8000CBDF8000000F09A
:1020B000400070B16B48006880B200EBC500801C26
:1020C000694931F81000C0F309006061B4F8068076
:1020D0000DE06448006880B200EBC500801D6249D5
:1020E00031F81000C0F309006061B4F80480616940
:1020F000E0680844E060D4E90401401A2061A16866
:102100002069884202D9208986B208E02069002827
:1021100005D9A1682069884201D8208A86B2002E9C
:1021200008DD32464146E06800F088FF002128467D
:10213000FEF7ECF92069A8B9494A02EB8501D1F80C
:10214000001C48F6BF7201EA020080F02001444BF7
:1021500003EB8502C2F8001CD7F8A0002946026AEA
:10216000424890476FE0FFE705EB45013F48583094
:1021700000EBC104BDF8000000F40040002862D06C
:102180000026374901EB8500D0F8000CC0F30E00A3
:1021900048F68F710840324A02EB8501C1F8000C05
:1021A000BDF8000000F4804088B12E48006880B27D
:1021B00000EBC500801C2C4931F81000C0F3090663
:1021C000B6B1B2B2A188E068FEF75AF810E025482F
:1021D000006880B200EBC500801D234931F8100073
:1021E000C0F3090626B1B2B2E188E068FEF748F80C
:1021F00001212846FEF78AF9E0683044E060606912
:10220000304460612069801B2061206910B1A068A2
:10221000B04217D9124A02EB8501D1F8001C4BF6E7
:102220008F7201EA020080F400510D4B03EB85022E
:10223000C2F8001CD7F8A0002946426A0B48904714
:102240000020606100BF07480C38006880B2019030
:1022500000F4004000287FF4FCAEBDE8FC810000E3
:1022600000500040505C0040006000401C01002015
:102270002DE9FC4107460024002500200190009034
:1022800097E0BDF8040000F00F05504901EB850010
:10229000D0F8000C80B20090BDF8040000F01000EF
:1022A00068BB05EB450107F1100000EBC104BDF868
:1022B000000000F0800000287BD0444901EB85003D
:1022C000D0F8000C48F60F710840404A02EB850137
:1022D000C1F8000C3E48006880B200EBC500801CCD
:1022E0003C4931F81000C0F3090060616169E068A1
:1022F0000844E06029463846FFF73CF959E00026DB
:1023000005EB450107F1580000EBC104BDF80000E2
:1023100000F4004000284BD02C4901EB8500D0F898
:10232000000CC0F30E0048F68F710840274A02EBFC
:102330008501C1F8000C2648006880B200EBC5009A
:10234000801D244931F81000C0F30906A6B1BDF87C
:10235000000000F4006050B1B2B26188B81DFDF712
:102360008FFF3846FFF7A9FD0020BDE8FC81B2B21F
:102370006188E068FDF784FF606930446061E0686F
:102380003044E0602069801B2061206910B1A068A2
:10239000B04206D929463846FFF754F9002060615B
:1023A00006E0208A83B229463846E26800F0BEFB88
:1023B00000BF07480C38006880B2019000F400406C
:1023C00000287FF45EAF00BFCFE700000050004060
:1023D000505C00400060004001460020704710B58E
:1023E0000446182300221146204600F0AFF8582377
:1023F00000228021204600F0A9F840230022114647
:10240000204600F023FA402300228021204600F0DD
:102410001DFA2078D4F8A42051688847002120466E
:1024200000F058FC0120E070002010BD10B50446FB
:10243000D4F8A000806A20B1D4F8A000816A2046B8
:102440008847002010BD000010B50446E0782071D8
:102450000420E070D4F8A410C868804705480078CC
:1024600010B1FFF75FFD02E00220FFF7C5FB00207F
:1024700010BD0000C600002010B50446D4F8A4101A
:10248000086980472079E0700020FFF7B5FB002045
:1024900010BD000010B50446012C04D141020548CE
:1024A000FEF7E7F804E04FF400710248FEF7DFF8AA
:1024B00010BD00000010014070B506460C461546E0
:1024C0002B4622460021304600F030FB002070BD34
:1024D00070B506460C4615462B46224680213046EE
:1024E00000F066FC002070BD10B504460948006885
:1024F00040F4807048F68F71084006490860052056
:10250000A07000231A461946204600F00FFB002059
:1025100010BD0000005C004010B504460420A0700F
:1025200000231A468021204600F042FC002010BD06
:1025300070B506460C4615460220B0702B46224662
:102540008021304600F034FC002070BDF0B5054617
:102550000C4604F07F01E61136B101EB410705F1AD
:10256000100606EBC70005E001EB410705F1580630
:1025700006EBC7001AB90026467043802DE0012AF9
:102580002BD10126467083801E0CC680134F07EBAB
:102590008106D6F8006C46F4807648F68F773E4088
:1025A000DFF838C00CEB8107C7F8006C868826F08E
:1025B00001060B4F3F68BFB207EBC107DFF824C02D
:1025C0004CF81760C68826F00107054E3668B6B28B
:1025D00006EBC106361D4CF81670F0BD00500040E9
:1025E000505C004000600040F0B5024601F07F0002
:1025F000CC1164B300EB400502F1100404EBC503F9
:102600002B4D05EB8004D4F8004C04F040046CB171
:1026100005EB8004D4F8004C48F68F752C4044F04C
:102620004004234E06EB8005C5F8004C204E06EB17
:102630008005D5F8005C48F6BF7605EA060484F00C
:1026400030051B4F07EB8006C6F8005C2CE000EB62
:10265000400502F1580404EBC503154D05EB800459
:10266000D4F8004C04F480446CB105EB8004D4F839
:10267000004C48F68F752C4044F480440C4E06EB19
:102680008005C5F8004C0A4E06EB8005D5F8005CC5
:102690004BF68F7605EA060484F44055044F07EBA9
:1026A0008006C6F8005C00BF00241C70F0BD00006E
:1026B0000050004070B502460B4603F07F00DC116D
:1026C000002C5FD000EB400502F1100404EBC501C3
:1026D0005D4D05EB8004D4F8004C04F040046CB16F
:1026E00005EB8004D4F8004C48F68F752C4044F07C
:1026F0004004554E06EB8005C5F8004C4C7894B369
:10270000514D05EB8004D4F8004C04F480446CB1C6
:1027100005EB8004D4F8004C48F68F752C4044F447
:102720008044494E06EB8005C5F8004C464D05EB4C
:102730008004D4F8004C48F68F752C4044F04004D7
:10274000414E06EB8005C5F8004C06EB8005D5F838
:10275000005C4BF68F7605EA06043B4E06EB8005DF
:10276000C5F8004C00BF384E06EB8005D5F8005C7C
:1027700048F6BF7605EA0604334E06EB8005C5F839
:10278000004C5FE000EB400502F1580404EBC5018A
:102790002D4D05EB8004D4F8004C04F480446CB15A
:1027A00005EB8004D4F8004C48F68F752C4044F4B7
:1027B0008044254E06EB8005C5F8004C4C7894B358
:1027C000214D05EB8004D4F8004C04F040046CB1BA
:1027D00005EB8004D4F8004C48F68F752C4044F08B
:1027E0004004194E06EB8005C5F8004C164D05EB6C
:1027F0008004D4F8004C48F68F752C4044F4804493
:10280000114E06EB8005C5F8004C06EB8005D5F8A7
:10281000005C48F6BF7605EA06040B4E06EB800521
:10282000C5F8004C00BF084E06EB8005D5F8005CEB
:102830004BF68F7605EA0604034E06EB8005C5F8D5
:10284000004C00BF70BD0000005000402DE9F04179
:1028500004460D4605F07F0032B1012A35D0022A28
:1028600013D0032A42D11FE0AD4F07EB8006D6F804
:10287000006C48F68F173E4046F40076DFF8A0C2A1
:102880000CEB8007C7F8006C30E0A54F07EB800623
:10289000D6F8006C48F68F173E40DFF884C20CEB88
:1028A0008007C7F8006C21E09D4F07EB8006D6F843
:1028B000006C48F68F173E4046F4C066DFF860C2F1
:1028C0000CEB8007C7F8006C10E0954F07EB800613
:1028D000D6F8006C48F68F173E4046F48066DFF865
:1028E00040C20CEB8007C7F8006C00BF00BFEE11C0
:1028F000002E7DD000EB400704F1100606EBC70167
:10290000874F07EB8006D6F8006C06F0400676B1DC
:1029100007EB8006D6F8006C48F68F773E4046F00D
:102920004006DFF8FCC10CEB8007C7F8006C4E785E
:102930007EBB4E8826F001067A4F3F68BFB207EB98
:10294000C007DFF8E4C14CF81760DFF8D4C10CEB26
:102950008007D7F8007C48F6BF7C07EA0C0686F0B3
:102960002007DFF8BC8108EB800CCCF8007C002845
:102970000ED1474607EB8006D6F8006C48F68F77F5
:102980003E4046F04006C4460CEB8007C7F8006C9A
:10299000BDE0FFE7624F07EB8006D6F8006C06F457
:1029A000804676B107EB8006D6F8006C48F68F7744
:1029B0003E4046F48046DFF868C10CEB8007C7F85C
:1029C000006CDFF85CC10CEB8007D7F8007C4BF69D
:1029D0008F7C07EA0C06DFF848C10CEB8007C7F8CC
:1029E000006C0CEB8007D7F8007C48F6BF7C00E059
:1029F0000AE007EA0C0686F03007DFF8248108EBCE
:102A0000800CCCF8007C82E000EB400704F1580613
:102A100006EBC701424F07EB8006D6F8006C06F4C0
:102A2000804676B107EB8006D6F8006C48F68F77C3
:102A30003E4046F48046DFF8E8C00CEB8007C7F85C
:102A4000006C4E78FEB94E8826F00107354E366888
:102A5000B6B206EBC006361DDFF8CCC04CF81670D7
:102A6000DFF8BCC00CEB8007D7F8007C4BF68F7CFE
:102A700007EA0C0686F40057DFF8A48008EB800C08
:102A8000CCF8007C43E0264F07EB8006D6F8006CBC
:102A900006F0400676B107EB8006D6F8006C48F6E3
:102AA0008F773E4046F04006DFF874C00CEB80079D
:102AB000C7F8006C1A4F07EB8006D6F8006C48F692
:102AC0008F773E4046F04006DFF854C00CEB80079D
:102AD000C7F8006C0CEB8007D7F8007C4BF68F7CB6
:102AE00007EA0C06DFF838C00CEB8007C7F8006C6B
:102AF0000CEB8007D7F8007C48F6BF7C07EA0C0691
:102B0000DFF81CC00CEB8007C7F8006C00BF8B60BF
:102B100000260E70CE600E614E61BDE8F0810000AF
:102B200000500040505C0040006000402DE9F04142
:102B300004460D4605F07F0101EB410704F15806FC
:102B400006EBC700C26003614678BEBB5E4F3F68BC
:102B5000BFB207EBC107BF1DDFF870C10CEB470622
:102B600087683E2F15D9D0F808C0CCF34F1790F8DE
:102B700008C00CF01F0CBCF1000F03D1A7F1010C31
:102B80001FFA8CF74FF4004C4CEA872CC6F800C0B3
:102B900013E0D0F808C0CCF34F0790F808C00CF051
:102BA000010CBCF1000F03D007F1010C1FFA8CF7E8
:102BB0004FEA872CC6F800C000BF71E0FFE7424F24
:102BC0003F68BFB207EBC107BF1CDFF800C10CEBC9
:102BD000470687683E2F15D9D0F808C0CCF34F17A9
:102BE00090F808C00CF01F0CBCF1000F03D1A7F146
:102BF000010C1FFA8CF74FF4004C4CEA872CC6F8F6
:102C000000C015E0D0F808C0CCF34F1790F808C00A
:102C10000CF01F0CBCF1000F03D1A7F1010C1FFA3F
:102C20008CF74FF4004C4CEA872CC6F800C000BF6C
:102C3000254F3F68BFB207EBC107BF1DDFF88CC04F
:102C40000CEB470687683E2F15D9D0F808C0CCF3A7
:102C50004F1790F808C00CF01F0CBCF1000F03D107
:102C6000A7F1010C1FFA8CF74FF4004C4CEA872CAB
:102C7000C6F800C013E0D0F808C0CCF34F0790F8B6
:102C800008C00CF0010CBCF1000F03D007F1010CDF
:102C90001FFA8CF74FEA872CC6F800C000BF00BFB0
:102CA000DFF82CC00CEB8107D7F8007C4BF68F7C4B
:102CB00007EA0C0686F44057DFF8148008EB810C15
:102CC000CCF8007CBDE8F081505C00400060004022
:102CD0000050004030B5034600200FE00B4C04EBE1
:102CE0008002D2F8002C48F68F7422400243074D30
:102CF00005EB8004C4F8002C421CD0B20328EDDBA5
:102D000041F08002024C226030BD000000500040C3
:102D10004C5C0040F0B5024601F07F00CC11B4B12C
:102D200000EB400502F1100404EBC5031F4E06EB57
:102D30008005D5F8005C48F6BF7605EA060484F005
:102D400010051A4F07EB8006C6F8005C16E000EB92
:102D5000400502F1580404EBC503144E06EB800550
:102D6000D5F8005C4BF68F7605EA060484F48055AE
:102D70000E4F07EB8006C6F8005C00BF90B90B4E03
:102D800006EB8005D5F8005C4BF6BF7605EA060435
:102D900084F4805585F01005044F07EB8006C6F8D3
:102DA000005C00BF01241C70F0BD0000005000401A
:102DB0002DE9F84306460F469046994600200090BC
:102DC00007F07F0505EB450106F1100000EBC1049B
:102DD000C4F80C80C4F8109000206061A1682069DC
:102DE000884202D9A068009001E0206900906078D4
:102DF00080B9009B9AB26188E06800F01FF924480E
:102E00000099006880B200EBC500801C214A42F89E
:102E100010102BE01E480099006880B200EBC5003E
:102E2000801C1C4A42F8101019480099006880B2B2
:102E300000EBC500801D42F81010174901EB85001A
:102E4000D0F8000C00F0400030B1009B9AB2E1884D
:102E5000E06800F0F3F805E0009B9AB2A188E06812
:102E600000F0ECF800212846FDF750FB0A4A02EB7F
:102E70008501D1F8001C48F6BF7201EA020080F01B
:102E80003001054B03EB8502C2F8001CBDE8F88356
:102E9000505C0040006000400050004010B5002031
:102EA000FDF7FCFD0121C805FDF7D8FD10BD0000B0
:102EB00008B501211020FDF7E1FD4FF40070ADF8D9
:102EC000000010208DF8030003208DF802006946F1
:102ED0000148FDF741FB08BD0010014008B54FF463
:102EE000C060FDF7AFFD14208DF8000001208DF8C3
:102EF000010000208DF8020001208DF803006846D3
:102F0000FDF73AFD08BD00001CB5002001900090BF
:102F10004448006880B20190BDF8040000F400400D
:102F200041490968084020B140480068416840486C
:102F30008847BDF8040000F480603B4909680840F8
:102F400040B14FF6FF3037490860384800680169E2
:102F500037488847BDF8040000F4804032490968CA
:102F6000084040B14BF6FF702E4908602F480068BA
:102F700081682F488847BDF8040000F400502A49B2
:102F80000968084040B14DF6FF702649086027489F
:102F90000068C16826488847BDF8040000F48050E6
:102FA00021490968084040B14EF6FF701D4908608C
:102FB0001E480068016A1E488847BDF8040000F4F6
:102FC000006019490968084040B118480068C169A3
:102FD000174888474FF2FF7012490860BDF8040097
:102FE00000F4007010490968084040B14FF6FF50E6
:102FF0000C4908600D48006841690D488847BDF8D4
:10300000040000F4807008490968084040B14FF698
:10301000FF600449086005480068816904488847E2
:103020001CBD0000445C00405C000020C00000208B
:103030001C01002010B5FFF767FF10BDF0B5134667
:103040005F1C7E10084F07EB4102344609E005780B
:10305000401C077845EA072722F8027B921C401C97
:10306000641E002CF3D1F0BD00600040FFF720FF8C
:10307000FFF714FFFFF732FF054B064A06490748E2
:10308000FEF7C9FC0548FEF76CFA00BFFEE700003A
:1030900048000020CC000020000000201C0100207F
:1030A0001201000200000040E9289902000101021B
:1030B000030104030904008000011F0000004744CD
:1030C000333220202020496E7465726E616C466C2C
:1030D000617368202020312E303009022000010168
:1030E00004C03209040000020806500507058102E9
:1030F00040000007050202400000000000030080BD
:103100008300000000000000000006000000000036
:103110000000000034310008000000201C01000005
:103120006C010008503200081C010020AC0F0000A8
:1031300088010008611F0008A51F0008B51F0008CE
:10314000E51F0008152000083D1F00087D1F00082E
:103150000603000000000000EF120008D91200086A
:1031600003130008091300080F13000835130008A3
:10317000EB120008B630000824000020731F00087E
:10318000751F0008711F0008791F0008771F0008CD
:103190000000000000000000EB1800088514000883
:1031A000F51B0008C71D0008F51B0008A11C00083E
:1031B00077170008C51D000833170008111D000807
:1031C000AB1800087B1E0008391F00080000000033
:1031D0004120000871220008D92300083920000886
:1031E000DF2300082D2400082B20000849240008B4
:1031F000792400089C000020040001000000000069
:10320000791B0008271B0008591B0008511A0008E9
:10321000611B0008B91B000800000000000000004E
:10322000031B0008151B000800000000491B0008D4
:10323000F11A00080000000000000000000000007B
:10324000000000000000000000000000000000007E
:0400000508000131BD
:00000001FF
